{
  "_format": "hh-sol-artifact-1",
  "contractName": "AnalyticsDAO",
  "sourceName": "contracts/AnalyticsDAO.sol",
  "abi": [
    {
      "anonymous": false,
      "inputs": [
        {
          "indexed": true,
          "internalType": "uint256",
          "name": "reportId",
          "type": "uint256"
        },
        {
          "indexed": false,
          "internalType": "string",
          "name": "content",
          "type": "string"
        },
        {
          "indexed": true,
          "internalType": "address",
          "name": "proposer",
          "type": "address"
        },
        {
          "indexed": false,
          "internalType": "uint256",
          "name": "timestamp",
          "type": "uint256"
        }
      ],
      "name": "ReportRecorded",
      "type": "event"
    },
    {
      "inputs": [],
      "name": "getAllReports",
      "outputs": [
        {
          "components": [
            {
              "internalType": "uint256",
              "name": "id",
              "type": "uint256"
            },
            {
              "internalType": "string",
              "name": "content",
              "type": "string"
            },
            {
              "internalType": "address",
              "name": "proposer",
              "type": "address"
            },
            {
              "internalType": "uint256",
              "name": "timestamp",
              "type": "uint256"
            }
          ],
          "internalType": "struct AnalyticsDAO.Report[]",
          "name": "",
          "type": "tuple[]"
        }
      ],
      "stateMutability": "view",
      "type": "function"
    },
    {
      "inputs": [
        {
          "internalType": "string",
          "name": "reportText",
          "type": "string"
        }
      ],
      "name": "recordReport",
      "outputs": [
        {
          "internalType": "uint256",
          "name": "reportId",
          "type": "uint256"
        }
      ],
      "stateMutability": "nonpayable",
      "type": "function"
    },
    {
      "inputs": [],
      "name": "reportCount",
      "outputs": [
        {
          "internalType": "uint256",
          "name": "",
          "type": "uint256"
        }
      ],
      "stateMutability": "view",
      "type": "function"
    },
    {
      "inputs": [
        {
          "internalType": "uint256",
          "name": "",
          "type": "uint256"
        }
      ],
      "name": "reports",
      "outputs": [
        {
          "internalType": "uint256",
          "name": "id",
          "type": "uint256"
        },
        {
          "internalType": "string",
          "name": "content",
          "type": "string"
        },
        {
          "internalType": "address",
          "name": "proposer",
          "type": "address"
        },
        {
          "internalType": "uint256",
          "name": "timestamp",
          "type": "uint256"
        }
      ],
      "stateMutability": "view",
      "type": "function"
    }
  ],
  "bytecode": "0x6080604052348015600e575f5ffd5b5061079a8061001c5f395ff3fe608060405234801561000f575f5ffd5b506004361061004a575f3560e01c806313c885b81461004e578063185c6f8414610074578063c942adf71461007c578063f3d3ddfa1461009f575b5f5ffd5b61006161005c3660046103ee565b6100b4565b6040519081526020015b60405180910390f35b6100615f5481565b61008f61008a3660046104a1565b610188565b60405161006b94939291906104e6565b6100a761023f565b60405161006b919061051a565b5f805481806100c2836105c5565b9091555050604080516080810182525f80548083526020808401878152338587015242606086015291835260019081905293909120825181559051919290919082019061010f908261065b565b506040828101516002830180546001600160a01b0319166001600160a01b039092169190911790556060909201516003909101555f5490513391907f1350a2933274cc993ac55ccdb713916e0fcb4a116eaea65a1adbfa4e9a262af4906101799086904290610716565b60405180910390a350505f5490565b600160208190525f9182526040909120805491810180546101a8906105dd565b80601f01602080910402602001604051908101604052809291908181526020018280546101d4906105dd565b801561021f5780601f106101f65761010080835404028352916020019161021f565b820191905f5260205f20905b81548152906001019060200180831161020257829003601f168201915b50505050600283015460039093015491926001600160a01b031691905084565b60605f5f5467ffffffffffffffff81111561025c5761025c6103da565b6040519080825280602002602001820160405280156102be57816020015b6102ab60405180608001604052805f8152602001606081526020015f6001600160a01b031681526020015f81525090565b81526020019060019003908161027a5790505b50905060015b5f5481116103d4575f81815260016020818152604092839020835160808101909452805484529182018054918401916102fc906105dd565b80601f0160208091040260200160405190810160405280929190818152602001828054610328906105dd565b80156103735780601f1061034a57610100808354040283529160200191610373565b820191905f5260205f20905b81548152906001019060200180831161035657829003601f168201915b505050918352505060028201546001600160a01b03166020820152600390910154604090910152826103a6600184610737565b815181106103b6576103b6610750565b602002602001018190525080806103cc906105c5565b9150506102c4565b50919050565b634e487b7160e01b5f52604160045260245ffd5b5f602082840312156103fe575f5ffd5b813567ffffffffffffffff811115610414575f5ffd5b8201601f81018413610424575f5ffd5b803567ffffffffffffffff81111561043e5761043e6103da565b604051601f8201601f19908116603f0116810167ffffffffffffffff8111828210171561046d5761046d6103da565b604052818152828201602001861015610484575f5ffd5b816020840160208301375f91810160200191909152949350505050565b5f602082840312156104b1575f5ffd5b5035919050565b5f81518084528060208401602086015e5f602082860101526020601f19601f83011685010191505092915050565b848152608060208201525f6104fe60808301866104b8565b6001600160a01b03949094166040830152506060015292915050565b5f602082016020835280845180835260408501915060408160051b8601019250602086015f5b828110156105a557603f1987860301845281518051865260208101516080602088015261057060808801826104b8565b6040838101516001600160a01b0316908901526060928301519290970191909152506020938401939190910190600101610540565b50929695505050505050565b634e487b7160e01b5f52601160045260245ffd5b5f600182016105d6576105d66105b1565b5060010190565b600181811c908216806105f157607f821691505b6020821081036103d457634e487b7160e01b5f52602260045260245ffd5b601f82111561065657805f5260205f20601f840160051c810160208510156106345750805b601f840160051c820191505b81811015610653575f8155600101610640565b50505b505050565b815167ffffffffffffffff811115610675576106756103da565b6106898161068384546105dd565b8461060f565b6020601f8211600181146106bb575f83156106a45750848201515b5f19600385901b1c1916600184901b178455610653565b5f84815260208120601f198516915b828110156106ea57878501518255602094850194600190920191016106ca565b508482101561070757868401515f19600387901b60f8161c191681555b50505050600190811b01905550565b604081525f61072860408301856104b8565b90508260208301529392505050565b8181038181111561074a5761074a6105b1565b92915050565b634e487b7160e01b5f52603260045260245ffdfea2646970667358221220d9d9686c5bab3420db2faf5234bdd57fc2b66d41b8d556f76c7bf65475d64d1d64736f6c634300081c0033",
  "linkReferences": {},
  "deployedLinkReferences": {}
}