{
  "_format": "hh-sol-artifact-1",
  "contractName": "FansToken",
  "sourceName": "contracts/FZToken.sol",
  "abi": [
    {
      "inputs": [
        {
          "internalType": "address",
          "name": "_daoTreasury",
          "type": "address"
        }
      ],
      "stateMutability": "nonpayable",
      "type": "constructor"
    },
    {
      "inputs": [],
      "name": "CheckpointUnorderedInsertion",
      "type": "error"
    },
    {
      "inputs": [],
      "name": "ECDSAInvalidSignature",
      "type": "error"
    },
    {
      "inputs": [
        {
          "internalType": "uint256",
          "name": "length",
          "type": "uint256"
        }
      ],
      "name": "ECDSAInvalidSignatureLength",
      "type": "error"
    },
    {
      "inputs": [
        {
          "internalType": "bytes32",
          "name": "s",
          "type": "bytes32"
        }
      ],
      "name": "ECDSAInvalidSignatureS",
      "type": "error"
    },
    {
      "inputs": [
        {
          "internalType": "uint256",
          "name": "increasedSupply",
          "type": "uint256"
        },
        {
          "internalType": "uint256",
          "name": "cap",
          "type": "uint256"
        }
      ],
      "name": "ERC20ExceededSafeSupply",
      "type": "error"
    },
    {
      "inputs": [
        {
          "internalType": "address",
          "name": "spender",
          "type": "address"
        },
        {
          "internalType": "uint256",
          "name": "allowance",
          "type": "uint256"
        },
        {
          "internalType": "uint256",
          "name": "needed",
          "type": "uint256"
        }
      ],
      "name": "ERC20InsufficientAllowance",
      "type": "error"
    },
    {
      "inputs": [
        {
          "internalType": "address",
          "name": "sender",
          "type": "address"
        },
        {
          "internalType": "uint256",
          "name": "balance",
          "type": "uint256"
        },
        {
          "internalType": "uint256",
          "name": "needed",
          "type": "uint256"
        }
      ],
      "name": "ERC20InsufficientBalance",
      "type": "error"
    },
    {
      "inputs": [
        {
          "internalType": "address",
          "name": "approver",
          "type": "address"
        }
      ],
      "name": "ERC20InvalidApprover",
      "type": "error"
    },
    {
      "inputs": [
        {
          "internalType": "address",
          "name": "receiver",
          "type": "address"
        }
      ],
      "name": "ERC20InvalidReceiver",
      "type": "error"
    },
    {
      "inputs": [
        {
          "internalType": "address",
          "name": "sender",
          "type": "address"
        }
      ],
      "name": "ERC20InvalidSender",
      "type": "error"
    },
    {
      "inputs": [
        {
          "internalType": "address",
          "name": "spender",
          "type": "address"
        }
      ],
      "name": "ERC20InvalidSpender",
      "type": "error"
    },
    {
      "inputs": [
        {
          "internalType": "uint256",
          "name": "deadline",
          "type": "uint256"
        }
      ],
      "name": "ERC2612ExpiredSignature",
      "type": "error"
    },
    {
      "inputs": [
        {
          "internalType": "address",
          "name": "signer",
          "type": "address"
        },
        {
          "internalType": "address",
          "name": "owner",
          "type": "address"
        }
      ],
      "name": "ERC2612InvalidSigner",
      "type": "error"
    },
    {
      "inputs": [
        {
          "internalType": "uint256",
          "name": "timepoint",
          "type": "uint256"
        },
        {
          "internalType": "uint48",
          "name": "clock",
          "type": "uint48"
        }
      ],
      "name": "ERC5805FutureLookup",
      "type": "error"
    },
    {
      "inputs": [],
      "name": "ERC6372InconsistentClock",
      "type": "error"
    },
    {
      "inputs": [],
      "name": "EnforcedPause",
      "type": "error"
    },
    {
      "inputs": [],
      "name": "ExpectedPause",
      "type": "error"
    },
    {
      "inputs": [
        {
          "internalType": "address",
          "name": "account",
          "type": "address"
        },
        {
          "internalType": "uint256",
          "name": "currentNonce",
          "type": "uint256"
        }
      ],
      "name": "InvalidAccountNonce",
      "type": "error"
    },
    {
      "inputs": [],
      "name": "InvalidShortString",
      "type": "error"
    },
    {
      "inputs": [
        {
          "internalType": "address",
          "name": "owner",
          "type": "address"
        }
      ],
      "name": "OwnableInvalidOwner",
      "type": "error"
    },
    {
      "inputs": [
        {
          "internalType": "address",
          "name": "account",
          "type": "address"
        }
      ],
      "name": "OwnableUnauthorizedAccount",
      "type": "error"
    },
    {
      "inputs": [
        {
          "internalType": "uint8",
          "name": "bits",
          "type": "uint8"
        },
        {
          "internalType": "uint256",
          "name": "value",
          "type": "uint256"
        }
      ],
      "name": "SafeCastOverflowedUintDowncast",
      "type": "error"
    },
    {
      "inputs": [
        {
          "internalType": "string",
          "name": "str",
          "type": "string"
        }
      ],
      "name": "StringTooLong",
      "type": "error"
    },
    {
      "inputs": [
        {
          "internalType": "uint256",
          "name": "expiry",
          "type": "uint256"
        }
      ],
      "name": "VotesExpiredSignature",
      "type": "error"
    },
    {
      "anonymous": false,
      "inputs": [
        {
          "indexed": true,
          "internalType": "address",
          "name": "owner",
          "type": "address"
        },
        {
          "indexed": true,
          "internalType": "address",
          "name": "spender",
          "type": "address"
        },
        {
          "indexed": false,
          "internalType": "uint256",
          "name": "value",
          "type": "uint256"
        }
      ],
      "name": "Approval",
      "type": "event"
    },
    {
      "anonymous": false,
      "inputs": [
        {
          "indexed": true,
          "internalType": "address",
          "name": "contractAddress",
          "type": "address"
        },
        {
          "indexed": false,
          "internalType": "bool",
          "name": "status",
          "type": "bool"
        }
      ],
      "name": "ContractAuthorized",
      "type": "event"
    },
    {
      "anonymous": false,
      "inputs": [
        {
          "indexed": true,
          "internalType": "address",
          "name": "dao",
          "type": "address"
        }
      ],
      "name": "DaoContractSet",
      "type": "event"
    },
    {
      "anonymous": false,
      "inputs": [
        {
          "indexed": true,
          "internalType": "address",
          "name": "delegator",
          "type": "address"
        },
        {
          "indexed": true,
          "internalType": "address",
          "name": "fromDelegate",
          "type": "address"
        },
        {
          "indexed": true,
          "internalType": "address",
          "name": "toDelegate",
          "type": "address"
        }
      ],
      "name": "DelegateChanged",
      "type": "event"
    },
    {
      "anonymous": false,
      "inputs": [
        {
          "indexed": true,
          "internalType": "address",
          "name": "delegate",
          "type": "address"
        },
        {
          "indexed": false,
          "internalType": "uint256",
          "name": "previousVotes",
          "type": "uint256"
        },
        {
          "indexed": false,
          "internalType": "uint256",
          "name": "newVotes",
          "type": "uint256"
        }
      ],
      "name": "DelegateVotesChanged",
      "type": "event"
    },
    {
      "anonymous": false,
      "inputs": [],
      "name": "EIP712DomainChanged",
      "type": "event"
    },
    {
      "anonymous": false,
      "inputs": [
        {
          "indexed": true,
          "internalType": "address",
          "name": "previousOwner",
          "type": "address"
        },
        {
          "indexed": true,
          "internalType": "address",
          "name": "newOwner",
          "type": "address"
        }
      ],
      "name": "OwnershipTransferred",
      "type": "event"
    },
    {
      "anonymous": false,
      "inputs": [
        {
          "indexed": false,
          "internalType": "address",
          "name": "account",
          "type": "address"
        }
      ],
      "name": "Paused",
      "type": "event"
    },
    {
      "anonymous": false,
      "inputs": [
        {
          "indexed": true,
          "internalType": "address",
          "name": "from",
          "type": "address"
        },
        {
          "indexed": true,
          "internalType": "address",
          "name": "to",
          "type": "address"
        },
        {
          "indexed": false,
          "internalType": "uint256",
          "name": "value",
          "type": "uint256"
        }
      ],
      "name": "Transfer",
      "type": "event"
    },
    {
      "anonymous": false,
      "inputs": [
        {
          "indexed": false,
          "internalType": "address",
          "name": "account",
          "type": "address"
        }
      ],
      "name": "Unpaused",
      "type": "event"
    },
    {
      "inputs": [],
      "name": "CLOCK_MODE",
      "outputs": [
        {
          "internalType": "string",
          "name": "",
          "type": "string"
        }
      ],
      "stateMutability": "view",
      "type": "function"
    },
    {
      "inputs": [],
      "name": "DOMAIN_SEPARATOR",
      "outputs": [
        {
          "internalType": "bytes32",
          "name": "",
          "type": "bytes32"
        }
      ],
      "stateMutability": "view",
      "type": "function"
    },
    {
      "inputs": [
        {
          "internalType": "address",
          "name": "owner",
          "type": "address"
        },
        {
          "internalType": "address",
          "name": "spender",
          "type": "address"
        }
      ],
      "name": "allowance",
      "outputs": [
        {
          "internalType": "uint256",
          "name": "",
          "type": "uint256"
        }
      ],
      "stateMutability": "view",
      "type": "function"
    },
    {
      "inputs": [
        {
          "internalType": "address",
          "name": "spender",
          "type": "address"
        },
        {
          "internalType": "uint256",
          "name": "value",
          "type": "uint256"
        }
      ],
      "name": "approve",
      "outputs": [
        {
          "internalType": "bool",
          "name": "",
          "type": "bool"
        }
      ],
      "stateMutability": "nonpayable",
      "type": "function"
    },
    {
      "inputs": [
        {
          "internalType": "address",
          "name": "",
          "type": "address"
        }
      ],
      "name": "authorizedContracts",
      "outputs": [
        {
          "internalType": "bool",
          "name": "",
          "type": "bool"
        }
      ],
      "stateMutability": "view",
      "type": "function"
    },
    {
      "inputs": [
        {
          "internalType": "address",
          "name": "account",
          "type": "address"
        }
      ],
      "name": "balanceOf",
      "outputs": [
        {
          "internalType": "uint256",
          "name": "",
          "type": "uint256"
        }
      ],
      "stateMutability": "view",
      "type": "function"
    },
    {
      "inputs": [
        {
          "internalType": "uint256",
          "name": "value",
          "type": "uint256"
        }
      ],
      "name": "burn",
      "outputs": [],
      "stateMutability": "nonpayable",
      "type": "function"
    },
    {
      "inputs": [
        {
          "internalType": "address",
          "name": "account",
          "type": "address"
        },
        {
          "internalType": "uint256",
          "name": "value",
          "type": "uint256"
        }
      ],
      "name": "burnFrom",
      "outputs": [],
      "stateMutability": "nonpayable",
      "type": "function"
    },
    {
      "inputs": [
        {
          "internalType": "address",
          "name": "account",
          "type": "address"
        },
        {
          "internalType": "uint32",
          "name": "pos",
          "type": "uint32"
        }
      ],
      "name": "checkpoints",
      "outputs": [
        {
          "components": [
            {
              "internalType": "uint48",
              "name": "_key",
              "type": "uint48"
            },
            {
              "internalType": "uint208",
              "name": "_value",
              "type": "uint208"
            }
          ],
          "internalType": "struct Checkpoints.Checkpoint208",
          "name": "",
          "type": "tuple"
        }
      ],
      "stateMutability": "view",
      "type": "function"
    },
    {
      "inputs": [],
      "name": "clock",
      "outputs": [
        {
          "internalType": "uint48",
          "name": "",
          "type": "uint48"
        }
      ],
      "stateMutability": "view",
      "type": "function"
    },
    {
      "inputs": [],
      "name": "daoContract",
      "outputs": [
        {
          "internalType": "address",
          "name": "",
          "type": "address"
        }
      ],
      "stateMutability": "view",
      "type": "function"
    },
    {
      "inputs": [],
      "name": "decimals",
      "outputs": [
        {
          "internalType": "uint8",
          "name": "",
          "type": "uint8"
        }
      ],
      "stateMutability": "view",
      "type": "function"
    },
    {
      "inputs": [
        {
          "internalType": "address",
          "name": "delegatee",
          "type": "address"
        }
      ],
      "name": "delegate",
      "outputs": [],
      "stateMutability": "nonpayable",
      "type": "function"
    },
    {
      "inputs": [
        {
          "internalType": "address",
          "name": "delegatee",
          "type": "address"
        },
        {
          "internalType": "uint256",
          "name": "nonce",
          "type": "uint256"
        },
        {
          "internalType": "uint256",
          "name": "expiry",
          "type": "uint256"
        },
        {
          "internalType": "uint8",
          "name": "v",
          "type": "uint8"
        },
        {
          "internalType": "bytes32",
          "name": "r",
          "type": "bytes32"
        },
        {
          "internalType": "bytes32",
          "name": "s",
          "type": "bytes32"
        }
      ],
      "name": "delegateBySig",
      "outputs": [],
      "stateMutability": "nonpayable",
      "type": "function"
    },
    {
      "inputs": [
        {
          "internalType": "address",
          "name": "account",
          "type": "address"
        }
      ],
      "name": "delegates",
      "outputs": [
        {
          "internalType": "address",
          "name": "",
          "type": "address"
        }
      ],
      "stateMutability": "view",
      "type": "function"
    },
    {
      "inputs": [],
      "name": "eip712Domain",
      "outputs": [
        {
          "internalType": "bytes1",
          "name": "fields",
          "type": "bytes1"
        },
        {
          "internalType": "string",
          "name": "name",
          "type": "string"
        },
        {
          "internalType": "string",
          "name": "version",
          "type": "string"
        },
        {
          "internalType": "uint256",
          "name": "chainId",
          "type": "uint256"
        },
        {
          "internalType": "address",
          "name": "verifyingContract",
          "type": "address"
        },
        {
          "internalType": "bytes32",
          "name": "salt",
          "type": "bytes32"
        },
        {
          "internalType": "uint256[]",
          "name": "extensions",
          "type": "uint256[]"
        }
      ],
      "stateMutability": "view",
      "type": "function"
    },
    {
      "inputs": [
        {
          "internalType": "uint256",
          "name": "timepoint",
          "type": "uint256"
        }
      ],
      "name": "getPastTotalSupply",
      "outputs": [
        {
          "internalType": "uint256",
          "name": "",
          "type": "uint256"
        }
      ],
      "stateMutability": "view",
      "type": "function"
    },
    {
      "inputs": [
        {
          "internalType": "address",
          "name": "account",
          "type": "address"
        },
        {
          "internalType": "uint256",
          "name": "timepoint",
          "type": "uint256"
        }
      ],
      "name": "getPastVotes",
      "outputs": [
        {
          "internalType": "uint256",
          "name": "",
          "type": "uint256"
        }
      ],
      "stateMutability": "view",
      "type": "function"
    },
    {
      "inputs": [
        {
          "internalType": "address",
          "name": "account",
          "type": "address"
        }
      ],
      "name": "getVotes",
      "outputs": [
        {
          "internalType": "uint256",
          "name": "",
          "type": "uint256"
        }
      ],
      "stateMutability": "view",
      "type": "function"
    },
    {
      "inputs": [
        {
          "internalType": "address",
          "name": "_to",
          "type": "address"
        },
        {
          "internalType": "uint256",
          "name": "amount",
          "type": "uint256"
        }
      ],
      "name": "mint",
      "outputs": [],
      "stateMutability": "nonpayable",
      "type": "function"
    },
    {
      "inputs": [],
      "name": "name",
      "outputs": [
        {
          "internalType": "string",
          "name": "",
          "type": "string"
        }
      ],
      "stateMutability": "view",
      "type": "function"
    },
    {
      "inputs": [
        {
          "internalType": "address",
          "name": "owner",
          "type": "address"
        }
      ],
      "name": "nonces",
      "outputs": [
        {
          "internalType": "uint256",
          "name": "",
          "type": "uint256"
        }
      ],
      "stateMutability": "view",
      "type": "function"
    },
    {
      "inputs": [
        {
          "internalType": "address",
          "name": "account",
          "type": "address"
        }
      ],
      "name": "numCheckpoints",
      "outputs": [
        {
          "internalType": "uint32",
          "name": "",
          "type": "uint32"
        }
      ],
      "stateMutability": "view",
      "type": "function"
    },
    {
      "inputs": [],
      "name": "owner",
      "outputs": [
        {
          "internalType": "address",
          "name": "",
          "type": "address"
        }
      ],
      "stateMutability": "view",
      "type": "function"
    },
    {
      "inputs": [],
      "name": "pause",
      "outputs": [],
      "stateMutability": "nonpayable",
      "type": "function"
    },
    {
      "inputs": [],
      "name": "paused",
      "outputs": [
        {
          "internalType": "bool",
          "name": "",
          "type": "bool"
        }
      ],
      "stateMutability": "view",
      "type": "function"
    },
    {
      "inputs": [
        {
          "internalType": "address",
          "name": "owner",
          "type": "address"
        },
        {
          "internalType": "address",
          "name": "spender",
          "type": "address"
        },
        {
          "internalType": "uint256",
          "name": "value",
          "type": "uint256"
        },
        {
          "internalType": "uint256",
          "name": "deadline",
          "type": "uint256"
        },
        {
          "internalType": "uint8",
          "name": "v",
          "type": "uint8"
        },
        {
          "internalType": "bytes32",
          "name": "r",
          "type": "bytes32"
        },
        {
          "internalType": "bytes32",
          "name": "s",
          "type": "bytes32"
        }
      ],
      "name": "permit",
      "outputs": [],
      "stateMutability": "nonpayable",
      "type": "function"
    },
    {
      "inputs": [],
      "name": "renounceOwnership",
      "outputs": [],
      "stateMutability": "nonpayable",
      "type": "function"
    },
    {
      "inputs": [
        {
          "internalType": "address",
          "name": "_contract",
          "type": "address"
        },
        {
          "internalType": "bool",
          "name": "_status",
          "type": "bool"
        }
      ],
      "name": "setAuthorizedContracts",
      "outputs": [],
      "stateMutability": "nonpayable",
      "type": "function"
    },
    {
      "inputs": [
        {
          "internalType": "address",
          "name": "_dao",
          "type": "address"
        }
      ],
      "name": "setDaoContract",
      "outputs": [],
      "stateMutability": "nonpayable",
      "type": "function"
    },
    {
      "inputs": [],
      "name": "symbol",
      "outputs": [
        {
          "internalType": "string",
          "name": "",
          "type": "string"
        }
      ],
      "stateMutability": "view",
      "type": "function"
    },
    {
      "inputs": [],
      "name": "totalSupply",
      "outputs": [
        {
          "internalType": "uint256",
          "name": "",
          "type": "uint256"
        }
      ],
      "stateMutability": "view",
      "type": "function"
    },
    {
      "inputs": [
        {
          "internalType": "address",
          "name": "to",
          "type": "address"
        },
        {
          "internalType": "uint256",
          "name": "value",
          "type": "uint256"
        }
      ],
      "name": "transfer",
      "outputs": [
        {
          "internalType": "bool",
          "name": "",
          "type": "bool"
        }
      ],
      "stateMutability": "nonpayable",
      "type": "function"
    },
    {
      "inputs": [
        {
          "internalType": "address",
          "name": "from",
          "type": "address"
        },
        {
          "internalType": "address",
          "name": "to",
          "type": "address"
        },
        {
          "internalType": "uint256",
          "name": "value",
          "type": "uint256"
        }
      ],
      "name": "transferFrom",
      "outputs": [
        {
          "internalType": "bool",
          "name": "",
          "type": "bool"
        }
      ],
      "stateMutability": "nonpayable",
      "type": "function"
    },
    {
      "inputs": [
        {
          "internalType": "address",
          "name": "newOwner",
          "type": "address"
        }
      ],
      "name": "transferOwnership",
      "outputs": [],
      "stateMutability": "nonpayable",
      "type": "function"
    },
    {
      "inputs": [],
      "name": "unpause",
      "outputs": [],
      "stateMutability": "nonpayable",
      "type": "function"
    }
  ],
  "bytecode": "0x610160604052348015610010575f5ffd5b5060405161301f38038061301f83398101604081905261002f9161090a565b33604051806040016040528060098152602001682330b739aa37b5b2b760b91b81525080604051806040016040528060018152602001603160f81b815250604051806040016040528060098152602001682330b739aa37b5b2b760b91b81525060405180604001604052806002815260200161232d60f11b81525081600390816100b991906109c7565b5060046100c682826109c7565b506100d6915083905060056101e0565b610120526100e58160066101e0565b61014052815160208084019190912060e052815190820120610100524660a05261017160e05161010051604080517f8b73c3c69bb8fe3d512ecc4cf759cc79239f7b179b0ffacaa9a75d522b39400f60208201529081019290925260608201524660808201523060a08201525f9060c00160405160208183030381529060405280519060200120905090565b60805250503060c052506001600160a01b0381166101a957604051631e4fbdf760e01b81525f60048201526024015b60405180910390fd5b6101b281610212565b505f6101c06012600a610b70565b6101cd90620f4240610b7e565b90506101d98282610263565b5050610c51565b5f6020835110156101fb576101f48361029b565b905061020c565b8161020684826109c7565b5060ff90505b92915050565b600b80546001600160a01b038381166001600160a01b0319831681179093556040519116919082907f8be0079c531659141344cd1fd0a4f28419497f9722a3daafe3b4186f6b6457e0905f90a35050565b6001600160a01b03821661028c5760405163ec442f0560e01b81525f60048201526024016101a0565b6102975f83836102d8565b5050565b5f5f829050601f815111156102c5578260405163305a27a960e01b81526004016101a09190610b95565b80516102d082610bca565b179392505050565b6102e06102f0565b6102eb838383610323565b505050565b610303600b54600160a01b900460ff1690565b156103215760405163d93c066560e01b815260040160405180910390fd5b565b61032e838383610389565b6001600160a01b03831661037e575f61034660025490565b90506001600160d01b038082111561037b57604051630e58ae9360e11b815260048101839052602481018290526044016101a0565b50505b6102eb8383836104af565b6001600160a01b0383166103b3578060025f8282546103a89190610bed565b909155506104239050565b6001600160a01b0383165f90815260208190526040902054818110156104055760405163391434e360e21b81526001600160a01b038516600482015260248101829052604481018390526064016101a0565b6001600160a01b0384165f9081526020819052604090209082900390555b6001600160a01b03821661043f5760028054829003905561045d565b6001600160a01b0382165f9081526020819052604090208054820190555b816001600160a01b0316836001600160a01b03167fddf252ad1be2c89b69c2b068fc378daa952ba7f163c4a11628f55a4df523b3ef836040516104a291815260200190565b60405180910390a3505050565b6001600160a01b0383166104dd576104da600a610cab61053760201b176104d584610549565b610580565b50505b6001600160a01b03821661050657610503600a610cb66105b560201b176104d584610549565b50505b6001600160a01b038381165f908152600860205260408082205485841683529120546102eb929182169116836105c0565b5f6105428284610c00565b9392505050565b5f6001600160d01b0382111561057c576040516306dfcc6560e41b815260d06004820152602481018390526044016101a0565b5090565b5f806105a861058d610710565b6105a06105998861071e565b868860201c565b879190610765565b915091505b935093915050565b5f6105428284610c1f565b816001600160a01b0316836001600160a01b0316141580156105e157505f81115b156102eb576001600160a01b03831615610679576001600160a01b0383165f9081526009602090815260408220829161062791906105b5901b610cb6176104d586610549565b6001600160d01b031691506001600160d01b03169150846001600160a01b03165f516020612fff5f395f51905f52838360405161066e929190918252602082015260400190565b60405180910390a250505b6001600160a01b038216156102eb576001600160a01b0382165f908152600960209081526040822082916106ba9190610537901b610cab176104d586610549565b6001600160d01b031691506001600160d01b03169150836001600160a01b03165f516020612fff5f395f51905f528383604051610701929190918252602082015260400190565b60405180910390a25050505050565b5f610719610772565b905090565b80545f90801561075d5761074483610737600184610c3e565b5f91825260209091200190565b54660100000000000090046001600160d01b0316610542565b5f9392505050565b5f806105a885858561077c565b5f610719436108d8565b82545f908190801561087b575f61079887610737600185610c3e565b805490915065ffffffffffff80821691660100000000000090046001600160d01b03169088168211156107de57604051632520601d60e01b815260040160405180910390fd5b8765ffffffffffff168265ffffffffffff160361081a57825465ffffffffffff1666010000000000006001600160d01b0389160217835561086d565b6040805180820190915265ffffffffffff808a1682526001600160d01b03808a1660208085019182528d54600181018f555f8f815291909120945191519092166601000000000000029216919091179101555b94508593506105ad92505050565b50506040805180820190915265ffffffffffff80851682526001600160d01b0380851660208085019182528854600181018a555f8a81529182209551925190931666010000000000000291909316179201919091559050816105ad565b5f65ffffffffffff82111561057c576040516306dfcc6560e41b815260306004820152602481018390526044016101a0565b5f6020828403121561091a575f5ffd5b81516001600160a01b0381168114610542575f5ffd5b634e487b7160e01b5f52604160045260245ffd5b600181811c9082168061095857607f821691505b60208210810361097657634e487b7160e01b5f52602260045260245ffd5b50919050565b601f8211156102eb57805f5260205f20601f840160051c810160208510156109a15750805b601f840160051c820191505b818110156109c0575f81556001016109ad565b5050505050565b81516001600160401b038111156109e0576109e0610930565b6109f4816109ee8454610944565b8461097c565b6020601f821160018114610a26575f8315610a0f5750848201515b5f19600385901b1c1916600184901b1784556109c0565b5f84815260208120601f198516915b82811015610a555787850151825560209485019460019092019101610a35565b5084821015610a7257868401515f19600387901b60f8161c191681555b50505050600190811b01905550565b634e487b7160e01b5f52601160045260245ffd5b6001815b60018411156105ad57808504811115610ab457610ab4610a81565b6001841615610ac257908102905b60019390931c928002610a99565b5f82610ade5750600161020c565b81610aea57505f61020c565b8160018114610b005760028114610b0a57610b26565b600191505061020c565b60ff841115610b1b57610b1b610a81565b50506001821b61020c565b5060208310610133831016604e8410600b8410161715610b49575081810a61020c565b610b555f198484610a95565b805f1904821115610b6857610b68610a81565b029392505050565b5f61054260ff841683610ad0565b808202811582820484141761020c5761020c610a81565b602081525f82518060208401528060208501604085015e5f604082850101526040601f19601f83011684010191505092915050565b80516020808301519190811015610976575f1960209190910360031b1b16919050565b8082018082111561020c5761020c610a81565b6001600160d01b03818116838216019081111561020c5761020c610a81565b6001600160d01b03828116828216039081111561020c5761020c610a81565b8181038181111561020c5761020c610a81565b60805160a05160c05160e05161010051610120516101405161235d610ca25f395f61123e01525f61121101525f610e8501525f610e5d01525f610db801525f610de201525f610e0c015261235d5ff3fe608060405234801561000f575f5ffd5b5060043610610213575f3560e01c8063715018a61161011f57806395d89b41116100a9578063d505accf11610079578063d505accf146104a5578063d5b9221b146104b8578063dd62ed3e146104da578063f1127ed814610512578063f2fde38b14610551575f5ffd5b806395d89b41146104645780639ab24eb01461046c578063a9059cbb1461047f578063c3cda52014610492575f5ffd5b806384b0196e116100ef57806384b0196e146103f35780638da5cb5b1461040e5780638e539e8c1461041f5780638fb582851461043257806391ddadf414610445575f5ffd5b8063715018a6146103bd57806379cc6790146103c55780637ecebe00146103d85780638456cb59146103eb575f5ffd5b806340c10f19116101a0578063587cde1e11610170578063587cde1e1461031d5780635c19a95c146103485780635c975abb1461035b5780636fcfff451461036d57806370a0823114610395575f5ffd5b806340c10f19146102c457806342966c68146102d75780634a7ffcbc146102ea5780634bf5d7e914610315575f5ffd5b806323b872dd116101e657806323b872dd1461027f578063313ce567146102925780633644e515146102a15780633a46b1a8146102a95780633f4ba83a146102bc575f5ffd5b80630228b7241461021757806306fdde031461022c578063095ea7b31461024a57806318160ddd1461026d575b5f5ffd5b61022a610225366004611f4e565b610564565b005b61023461061a565b6040516102419190611fb5565b60405180910390f35b61025d610258366004611fc7565b6106aa565b6040519015158152602001610241565b6002545b604051908152602001610241565b61025d61028d366004611fef565b6106c3565b60405160128152602001610241565b6102716106e6565b6102716102b7366004611fc7565b6106f4565b61022a61072e565b61022a6102d2366004611fc7565b610789565b61022a6102e5366004612029565b6107e5565b600c546102fd906001600160a01b031681565b6040516001600160a01b039091168152602001610241565b6102346107f2565b6102fd61032b366004612040565b6001600160a01b039081165f908152600860205260409020541690565b61022a610356366004612040565b61086a565b600b54600160a01b900460ff1661025d565b61038061037b366004612040565b610875565b60405163ffffffff9091168152602001610241565b6102716103a3366004612040565b6001600160a01b03165f9081526020819052604090205490565b61022a61087f565b61022a6103d3366004611fc7565b610890565b6102716103e6366004612040565b6108a5565b61022a6108af565b6103fb610906565b6040516102419796959493929190612059565b600b546001600160a01b03166102fd565b61027161042d366004612029565b610948565b61022a610440366004612040565b61096c565b61044d610a16565b60405165ffffffffffff9091168152602001610241565b610234610a1f565b61027161047a366004612040565b610a2e565b61025d61048d366004611fc7565b610a4e565b61022a6104a03660046120ff565b610a5b565b61022a6104b3366004612153565b610b17565b61025d6104c6366004612040565b600d6020525f908152604090205460ff1681565b6102716104e83660046121b9565b6001600160a01b039182165f90815260016020908152604080832093909416825291909152205490565b6105256105203660046121ea565b610c4d565b60408051825165ffffffffffff1681526020928301516001600160d01b03169281019290925201610241565b61022a61055f366004612040565b610c71565b600c546001600160a01b031633146105bc5760405162461bcd60e51b81526020600482015260166024820152754f6e6c792044414f2063616e20617574686f72697a6560501b60448201526064015b60405180910390fd5b6001600160a01b0382165f818152600d6020908152604091829020805460ff191685151590811790915591519182527f3213ab8ec2ed122402f038736b41878b69ae9f61f49a7edd0666bce891d29fc9910160405180910390a25050565b6060600380546106299061221c565b80601f01602080910402602001604051908101604052809291908181526020018280546106559061221c565b80156106a05780601f10610677576101008083540402835291602001916106a0565b820191905f5260205f20905b81548152906001019060200180831161068357829003601f168201915b5050505050905090565b5f336106b7818585610cc1565b60019150505b92915050565b5f336106d0858285610cd3565b6106db858585610d4f565b506001949350505050565b5f6106ef610dac565b905090565b5f61071e61070183610ed5565b6001600160a01b0385165f90815260096020526040902090610f23565b6001600160d01b03169392505050565b600c546001600160a01b0316331461077f5760405162461bcd60e51b81526020600482015260146024820152734f6e6c792044414f2063616e20756e706175736560601b60448201526064016105b3565b610787610fd3565b565b600c546001600160a01b031633146107d75760405162461bcd60e51b815260206004820152601160248201527013db9b1e48111053c818d85b881b5a5b9d607a1b60448201526064016105b3565b6107e18282611028565b5050565b6107ef338261105c565b50565b60606107fc611090565b65ffffffffffff1661080c610a16565b65ffffffffffff1614610832576040516301bfc1c560e61b815260040160405180910390fd5b5060408051808201909152601d81527f6d6f64653d626c6f636b6e756d6265722666726f6d3d64656661756c74000000602082015290565b336107e1818361109a565b5f6106bd8261110b565b61088761112c565b6107875f611159565b61089b823383610cd3565b6107e1828261105c565b5f6106bd826111aa565b600c546001600160a01b031633146108fe5760405162461bcd60e51b81526020600482015260126024820152714f6e6c792044414f2063616e20706175736560701b60448201526064016105b3565b6107876111c7565b5f6060805f5f5f606061091761120a565b61091f611237565b604080515f80825260208201909252600f60f81b9b939a50919850469750309650945092509050565b5f61095d61095583610ed5565b600a90610f23565b6001600160d01b031692915050565b61097461112c565b600c546001600160a01b0316156109cd5760405162461bcd60e51b815260206004820152601860248201527f44414f20636f6e747261637420616c726561647920736574000000000000000060448201526064016105b3565b600c80546001600160a01b0319166001600160a01b0383169081179091556040517fd949288734e0d290bfe309e83bbed4d0ce4e77dfc60e3ebe1283596a3c6e69f2905f90a250565b5f6106ef611090565b6060600480546106299061221c565b6001600160a01b0381165f90815260096020526040812061095d90611264565b5f336106b7818585610d4f565b83421115610a7f57604051632341d78760e11b8152600481018590526024016105b3565b604080517fe48329057bfd03d55e49b547132e39cffd9c1820ad7b9d4c5307691425d15adf60208201526001600160a01b0388169181019190915260608101869052608081018590525f90610af890610af09060a0016040516020818303038152906040528051906020012061129b565b8585856112c7565b9050610b0481876112f3565b610b0e818861109a565b50505050505050565b83421115610b3b5760405163313c898160e11b8152600481018590526024016105b3565b5f7f6e71edae12b1b97f4d1f60370fef10105fa2faae0126114a169c64845d6126c9888888610b868c6001600160a01b03165f90815260076020526040902080546001810190915590565b6040805160208101969096526001600160a01b0394851690860152929091166060840152608083015260a082015260c0810186905260e0016040516020818303038152906040528051906020012090505f610be08261129b565b90505f610bef828787876112c7565b9050896001600160a01b0316816001600160a01b031614610c36576040516325c0072360e11b81526001600160a01b0380831660048301528b1660248201526044016105b3565b610c418a8a8a610cc1565b50505050505050505050565b604080518082019091525f8082526020820152610c6a8383611345565b9392505050565b610c7961112c565b6001600160a01b038116610ca257604051631e4fbdf760e01b81525f60048201526024016105b3565b6107ef81611159565b5f610c6a8284612268565b5f610c6a8284612287565b610cce8383836001611379565b505050565b6001600160a01b038381165f908152600160209081526040808320938616835292905220545f19811015610d495781811015610d3b57604051637dc7a0d960e11b81526001600160a01b038416600482015260248101829052604481018390526064016105b3565b610d4984848484035f611379565b50505050565b6001600160a01b038316610d7857604051634b637e8f60e11b81525f60048201526024016105b3565b6001600160a01b038216610da15760405163ec442f0560e01b81525f60048201526024016105b3565b610cce83838361144b565b5f306001600160a01b037f000000000000000000000000000000000000000000000000000000000000000016148015610e0457507f000000000000000000000000000000000000000000000000000000000000000046145b15610e2e57507f000000000000000000000000000000000000000000000000000000000000000090565b6106ef604080517f8b73c3c69bb8fe3d512ecc4cf759cc79239f7b179b0ffacaa9a75d522b39400f60208201527f0000000000000000000000000000000000000000000000000000000000000000918101919091527f000000000000000000000000000000000000000000000000000000000000000060608201524660808201523060a08201525f9060c00160405160208183030381529060405280519060200120905090565b5f5f610edf610a16565b90508065ffffffffffff168310610f1a57604051637669fc0f60e11b81526004810184905265ffffffffffff821660248201526044016105b3565b610c6a8361145e565b81545f9081816005811115610f7f575f610f3c84611494565b610f4690856122a6565b5f8881526020902090915081015465ffffffffffff9081169087161015610f6f57809150610f7d565b610f7a8160016122b9565b92505b505b5f610f8c878785856115ec565b90508015610fc657610fb087610fa36001846122a6565b5f91825260209091200190565b54600160301b90046001600160d01b0316610fc8565b5f5b979650505050505050565b610fdb61164b565b600b805460ff60a01b191690557f5db9ee0a495bf2e6ff9c91a7834c1ba4fdd244a5e8aa4e537bd38aeae4b073aa335b6040516001600160a01b03909116815260200160405180910390a1565b6001600160a01b0382166110515760405163ec442f0560e01b81525f60048201526024016105b3565b6107e15f838361144b565b6001600160a01b03821661108557604051634b637e8f60e11b81525f60048201526024016105b3565b6107e1825f8361144b565b5f6106ef4361145e565b6001600160a01b038281165f8181526008602052604080822080548686166001600160a01b0319821681179092559151919094169392849290917f3134e8a2e6d97e929a7e54011ea5485d7d196dd5f0ba4d4ef95803e8e3fc257f9190a4610cce818361110686611675565b611692565b6001600160a01b0381165f908152600960205260408120546106bd906117fb565b600b546001600160a01b031633146107875760405163118cdaa760e01b81523360048201526024016105b3565b600b80546001600160a01b038381166001600160a01b0319831681179093556040519116919082907f8be0079c531659141344cd1fd0a4f28419497f9722a3daafe3b4186f6b6457e0905f90a35050565b6001600160a01b0381165f908152600760205260408120546106bd565b6111cf61182b565b600b805460ff60a01b1916600160a01b1790557f62e78cea01bee320cd4e420270b5ea74000d11b0c9f74754ebdbfc544b05a25861100b3390565b60606106ef7f00000000000000000000000000000000000000000000000000000000000000006005611856565b60606106ef7f00000000000000000000000000000000000000000000000000000000000000006006611856565b80545f9080156112935761127d83610fa36001846122a6565b54600160301b90046001600160d01b0316610c6a565b5f9392505050565b5f6106bd6112a7610dac565b8360405161190160f01b8152600281019290925260228201526042902090565b5f5f5f5f6112d7888888886118ff565b9250925092506112e782826119c7565b50909695505050505050565b6001600160a01b0382165f908152600760205260409020805460018101909155818114610cce576040516301d4b62360e61b81526001600160a01b0384166004820152602481018290526044016105b3565b604080518082019091525f80825260208201526001600160a01b0383165f908152600960205260409020610c6a9083611a7f565b6001600160a01b0384166113a25760405163e602df0560e01b81525f60048201526024016105b3565b6001600160a01b0383166113cb57604051634a1406b160e11b81525f60048201526024016105b3565b6001600160a01b038085165f9081526001602090815260408083209387168352929052208290558015610d4957826001600160a01b0316846001600160a01b03167f8c5be1e5ebec7d5bd14f71427d1e84f3dd0314c0f7b2291e5b200ac8c7c3b9258460405161143d91815260200190565b60405180910390a350505050565b61145361182b565b610cce838383611aec565b5f65ffffffffffff821115611490576040516306dfcc6560e41b815260306004820152602481018390526044016105b3565b5090565b5f600182116114a1575090565b816001600160801b82106114ba5760809190911c9060401b5b6801000000000000000082106114d55760409190911c9060201b5b64010000000082106114ec5760209190911c9060101b5b6201000082106115015760109190911c9060081b5b61010082106115155760089190911c9060041b5b601082106115285760049190911c9060021b5b600482106115345760011b5b600302600190811c9081858161154c5761154c6122cc565b048201901c90506001818581611564576115646122cc565b048201901c9050600181858161157c5761157c6122cc565b048201901c90506001818581611594576115946122cc565b048201901c905060018185816115ac576115ac6122cc565b048201901c905060018185816115c4576115c46122cc565b048201901c90506115e38185816115dd576115dd6122cc565b04821190565b90039392505050565b5f5b81831015611643575f6116018484611b52565b5f8781526020902090915065ffffffffffff86169082015465ffffffffffff16111561162f5780925061163d565b61163a8160016122b9565b93505b506115ee565b509392505050565b600b54600160a01b900460ff1661078757604051638dfc202b60e01b815260040160405180910390fd5b6001600160a01b0381165f908152602081905260408120546106bd565b816001600160a01b0316836001600160a01b0316141580156116b357505f81115b15610cce576001600160a01b0383161561175a576001600160a01b0383165f90815260096020526040812081906116f590610cb66116f086611b6c565b611b9f565b6001600160d01b031691506001600160d01b03169150846001600160a01b03167fdec2bacdd2f05b59de34da9b523dff8be42e5e38e818c82fdb0bae774387a724838360405161174f929190918252602082015260400190565b60405180910390a250505b6001600160a01b03821615610cce576001600160a01b0382165f908152600960205260408120819061179290610cab6116f086611b6c565b6001600160d01b031691506001600160d01b03169150836001600160a01b03167fdec2bacdd2f05b59de34da9b523dff8be42e5e38e818c82fdb0bae774387a72483836040516117ec929190918252602082015260400190565b60405180910390a25050505050565b5f63ffffffff821115611490576040516306dfcc6560e41b815260206004820152602481018390526044016105b3565b600b54600160a01b900460ff16156107875760405163d93c066560e01b815260040160405180910390fd5b606060ff83146118705761186983611bd7565b90506106bd565b81805461187c9061221c565b80601f01602080910402602001604051908101604052809291908181526020018280546118a89061221c565b80156118f35780601f106118ca576101008083540402835291602001916118f3565b820191905f5260205f20905b8154815290600101906020018083116118d657829003601f168201915b505050505090506106bd565b5f80807f7fffffffffffffffffffffffffffffff5d576e7357a4501ddfe92f46681b20a084111561193857505f915060039050826119bd565b604080515f808252602082018084528a905260ff891692820192909252606081018790526080810186905260019060a0016020604051602081039080840390855afa158015611989573d5f5f3e3d5ffd5b5050604051601f1901519150506001600160a01b0381166119b457505f9250600191508290506119bd565b92505f91508190505b9450945094915050565b5f8260038111156119da576119da6122e0565b036119e3575050565b60018260038111156119f7576119f76122e0565b03611a155760405163f645eedf60e01b815260040160405180910390fd5b6002826003811115611a2957611a296122e0565b03611a4a5760405163fce698f760e01b8152600481018290526024016105b3565b6003826003811115611a5e57611a5e6122e0565b036107e1576040516335e2f38360e21b8152600481018290526024016105b3565b604080518082019091525f8082526020820152825f018263ffffffff1681548110611aac57611aac6122f4565b5f9182526020918290206040805180820190915291015465ffffffffffff81168252600160301b90046001600160d01b0316918101919091529392505050565b611af7838383611c14565b6001600160a01b038316611b47575f611b0f60025490565b90506001600160d01b0380821115611b4457604051630e58ae9360e11b815260048101839052602481018290526044016105b3565b50505b610cce838383611d3a565b5f611b606002848418612308565b610c6a908484166122b9565b5f6001600160d01b03821115611490576040516306dfcc6560e41b815260d06004820152602481018390526044016105b3565b5f5f611bca611bac610a16565b611bc2611bb888611264565b868863ffffffff16565b879190611daf565b915091505b935093915050565b60605f611be383611dbc565b6040805160208082528183019092529192505f91906020820181803683375050509182525060208101929092525090565b6001600160a01b038316611c3e578060025f828254611c3391906122b9565b90915550611cae9050565b6001600160a01b0383165f9081526020819052604090205481811015611c905760405163391434e360e21b81526001600160a01b038516600482015260248101829052604481018390526064016105b3565b6001600160a01b0384165f9081526020819052604090209082900390555b6001600160a01b038216611cca57600280548290039055611ce8565b6001600160a01b0382165f9081526020819052604090208054820190555b816001600160a01b0316836001600160a01b03167fddf252ad1be2c89b69c2b068fc378daa952ba7f163c4a11628f55a4df523b3ef83604051611d2d91815260200190565b60405180910390a3505050565b6001600160a01b038316611d5c57611d59600a610cab6116f084611b6c565b50505b6001600160a01b038216611d7e57611d7b600a610cb66116f084611b6c565b50505b6001600160a01b038381165f90815260086020526040808220548584168352912054610cce92918216911683611692565b5f80611bca858585611de3565b5f60ff8216601f8111156106bd57604051632cd44ac360e21b815260040160405180910390fd5b82545f9081908015611ed9575f611dff87610fa36001856122a6565b805490915065ffffffffffff80821691600160301b90046001600160d01b0316908816821115611e4257604051632520601d60e01b815260040160405180910390fd5b8765ffffffffffff168265ffffffffffff1603611e7b57825465ffffffffffff16600160301b6001600160d01b03891602178355611ecb565b6040805180820190915265ffffffffffff808a1682526001600160d01b03808a1660208085019182528d54600181018f555f8f81529190912094519151909216600160301b029216919091179101555b9450859350611bcf92505050565b50506040805180820190915265ffffffffffff80851682526001600160d01b0380851660208085019182528854600181018a555f8a815291822095519251909316600160301b029190931617920191909155905081611bcf565b80356001600160a01b0381168114611f49575f5ffd5b919050565b5f5f60408385031215611f5f575f5ffd5b611f6883611f33565b915060208301358015158114611f7c575f5ffd5b809150509250929050565b5f81518084528060208401602086015e5f602082860101526020601f19601f83011685010191505092915050565b602081525f610c6a6020830184611f87565b5f5f60408385031215611fd8575f5ffd5b611fe183611f33565b946020939093013593505050565b5f5f5f60608486031215612001575f5ffd5b61200a84611f33565b925061201860208501611f33565b929592945050506040919091013590565b5f60208284031215612039575f5ffd5b5035919050565b5f60208284031215612050575f5ffd5b610c6a82611f33565b60ff60f81b8816815260e060208201525f61207760e0830189611f87565b82810360408401526120898189611f87565b606084018890526001600160a01b038716608085015260a0840186905283810360c0850152845180825260208087019350909101905f5b818110156120de5783518352602093840193909201916001016120c0565b50909b9a5050505050505050505050565b803560ff81168114611f49575f5ffd5b5f5f5f5f5f5f60c08789031215612114575f5ffd5b61211d87611f33565b95506020870135945060408701359350612139606088016120ef565b9598949750929560808101359460a0909101359350915050565b5f5f5f5f5f5f5f60e0888a031215612169575f5ffd5b61217288611f33565b965061218060208901611f33565b9550604088013594506060880135935061219c608089016120ef565b9699959850939692959460a0840135945060c09093013592915050565b5f5f604083850312156121ca575f5ffd5b6121d383611f33565b91506121e160208401611f33565b90509250929050565b5f5f604083850312156121fb575f5ffd5b61220483611f33565b9150602083013563ffffffff81168114611f7c575f5ffd5b600181811c9082168061223057607f821691505b60208210810361224e57634e487b7160e01b5f52602260045260245ffd5b50919050565b634e487b7160e01b5f52601160045260245ffd5b6001600160d01b0381811683821601908111156106bd576106bd612254565b6001600160d01b0382811682821603908111156106bd576106bd612254565b818103818111156106bd576106bd612254565b808201808211156106bd576106bd612254565b634e487b7160e01b5f52601260045260245ffd5b634e487b7160e01b5f52602160045260245ffd5b634e487b7160e01b5f52603260045260245ffd5b5f8261232257634e487b7160e01b5f52601260045260245ffd5b50049056fea26469706673582212203a6da67fc642595b268fbce649dca680142ececd5b3f6dc4c88eda8ca8fcbd8f64736f6c634300081c0033dec2bacdd2f05b59de34da9b523dff8be42e5e38e818c82fdb0bae774387a724",
  "linkReferences": {},
  "deployedLinkReferences": {}
}