{
  "_format": "hh-sol-artifact-1",
  "contractName": "GovernerContract",
  "sourceName": "contracts/governance_standard/GovernerContract.sol",
  "abi": [
    {
      "inputs": [],
      "stateMutability": "nonpayable",
      "type": "constructor"
    },
    {
      "inputs": [],
      "name": "CheckpointUnorderedInsertion",
      "type": "error"
    },
    {
      "inputs": [],
      "name": "FailedCall",
      "type": "error"
    },
    {
      "inputs": [
        {
          "internalType": "address",
          "name": "voter",
          "type": "address"
        }
      ],
      "name": "GovernorAlreadyCastVote",
      "type": "error"
    },
    {
      "inputs": [
        {
          "internalType": "uint256",
          "name": "proposalId",
          "type": "uint256"
        }
      ],
      "name": "GovernorAlreadyQueuedProposal",
      "type": "error"
    },
    {
      "inputs": [],
      "name": "GovernorDisabledDeposit",
      "type": "error"
    },
    {
      "inputs": [
        {
          "internalType": "address",
          "name": "proposer",
          "type": "address"
        },
        {
          "internalType": "uint256",
          "name": "votes",
          "type": "uint256"
        },
        {
          "internalType": "uint256",
          "name": "threshold",
          "type": "uint256"
        }
      ],
      "name": "GovernorInsufficientProposerVotes",
      "type": "error"
    },
    {
      "inputs": [
        {
          "internalType": "uint256",
          "name": "targets",
          "type": "uint256"
        },
        {
          "internalType": "uint256",
          "name": "calldatas",
          "type": "uint256"
        },
        {
          "internalType": "uint256",
          "name": "values",
          "type": "uint256"
        }
      ],
      "name": "GovernorInvalidProposalLength",
      "type": "error"
    },
    {
      "inputs": [
        {
          "internalType": "uint256",
          "name": "quorumNumerator",
          "type": "uint256"
        },
        {
          "internalType": "uint256",
          "name": "quorumDenominator",
          "type": "uint256"
        }
      ],
      "name": "GovernorInvalidQuorumFraction",
      "type": "error"
    },
    {
      "inputs": [
        {
          "internalType": "address",
          "name": "voter",
          "type": "address"
        }
      ],
      "name": "GovernorInvalidSignature",
      "type": "error"
    },
    {
      "inputs": [],
      "name": "GovernorInvalidVoteParams",
      "type": "error"
    },
    {
      "inputs": [],
      "name": "GovernorInvalidVoteType",
      "type": "error"
    },
    {
      "inputs": [
        {
          "internalType": "uint256",
          "name": "votingPeriod",
          "type": "uint256"
        }
      ],
      "name": "GovernorInvalidVotingPeriod",
      "type": "error"
    },
    {
      "inputs": [
        {
          "internalType": "uint256",
          "name": "proposalId",
          "type": "uint256"
        }
      ],
      "name": "GovernorNonexistentProposal",
      "type": "error"
    },
    {
      "inputs": [
        {
          "internalType": "uint256",
          "name": "proposalId",
          "type": "uint256"
        }
      ],
      "name": "GovernorNotQueuedProposal",
      "type": "error"
    },
    {
      "inputs": [
        {
          "internalType": "address",
          "name": "account",
          "type": "address"
        }
      ],
      "name": "GovernorOnlyExecutor",
      "type": "error"
    },
    {
      "inputs": [],
      "name": "GovernorQueueNotImplemented",
      "type": "error"
    },
    {
      "inputs": [
        {
          "internalType": "address",
          "name": "proposer",
          "type": "address"
        }
      ],
      "name": "GovernorRestrictedProposer",
      "type": "error"
    },
    {
      "inputs": [
        {
          "internalType": "uint256",
          "name": "proposalId",
          "type": "uint256"
        },
        {
          "internalType": "address",
          "name": "account",
          "type": "address"
        }
      ],
      "name": "GovernorUnableToCancel",
      "type": "error"
    },
    {
      "inputs": [
        {
          "internalType": "uint256",
          "name": "proposalId",
          "type": "uint256"
        },
        {
          "internalType": "enum IGovernor.ProposalState",
          "name": "current",
          "type": "uint8"
        },
        {
          "internalType": "bytes32",
          "name": "expectedStates",
          "type": "bytes32"
        }
      ],
      "name": "GovernorUnexpectedProposalState",
      "type": "error"
    },
    {
      "inputs": [
        {
          "internalType": "address",
          "name": "account",
          "type": "address"
        },
        {
          "internalType": "uint256",
          "name": "currentNonce",
          "type": "uint256"
        }
      ],
      "name": "InvalidAccountNonce",
      "type": "error"
    },
    {
      "inputs": [],
      "name": "InvalidInitialization",
      "type": "error"
    },
    {
      "inputs": [],
      "name": "NotInitializing",
      "type": "error"
    },
    {
      "inputs": [
        {
          "internalType": "uint8",
          "name": "bits",
          "type": "uint8"
        },
        {
          "internalType": "uint256",
          "name": "value",
          "type": "uint256"
        }
      ],
      "name": "SafeCastOverflowedUintDowncast",
      "type": "error"
    },
    {
      "anonymous": false,
      "inputs": [],
      "name": "EIP712DomainChanged",
      "type": "event"
    },
    {
      "anonymous": false,
      "inputs": [
        {
          "indexed": false,
          "internalType": "uint64",
          "name": "version",
          "type": "uint64"
        }
      ],
      "name": "Initialized",
      "type": "event"
    },
    {
      "anonymous": false,
      "inputs": [
        {
          "indexed": false,
          "internalType": "uint256",
          "name": "proposalId",
          "type": "uint256"
        }
      ],
      "name": "ProposalCanceled",
      "type": "event"
    },
    {
      "anonymous": false,
      "inputs": [
        {
          "indexed": false,
          "internalType": "uint256",
          "name": "proposalId",
          "type": "uint256"
        },
        {
          "indexed": false,
          "internalType": "address",
          "name": "proposer",
          "type": "address"
        },
        {
          "indexed": false,
          "internalType": "address[]",
          "name": "targets",
          "type": "address[]"
        },
        {
          "indexed": false,
          "internalType": "uint256[]",
          "name": "values",
          "type": "uint256[]"
        },
        {
          "indexed": false,
          "internalType": "string[]",
          "name": "signatures",
          "type": "string[]"
        },
        {
          "indexed": false,
          "internalType": "bytes[]",
          "name": "calldatas",
          "type": "bytes[]"
        },
        {
          "indexed": false,
          "internalType": "uint256",
          "name": "voteStart",
          "type": "uint256"
        },
        {
          "indexed": false,
          "internalType": "uint256",
          "name": "voteEnd",
          "type": "uint256"
        },
        {
          "indexed": false,
          "internalType": "string",
          "name": "description",
          "type": "string"
        }
      ],
      "name": "ProposalCreated",
      "type": "event"
    },
    {
      "anonymous": false,
      "inputs": [
        {
          "indexed": false,
          "internalType": "uint256",
          "name": "proposalId",
          "type": "uint256"
        }
      ],
      "name": "ProposalExecuted",
      "type": "event"
    },
    {
      "anonymous": false,
      "inputs": [
        {
          "indexed": false,
          "internalType": "uint256",
          "name": "proposalId",
          "type": "uint256"
        },
        {
          "indexed": false,
          "internalType": "uint256",
          "name": "etaSeconds",
          "type": "uint256"
        }
      ],
      "name": "ProposalQueued",
      "type": "event"
    },
    {
      "anonymous": false,
      "inputs": [
        {
          "indexed": false,
          "internalType": "uint256",
          "name": "oldProposalThreshold",
          "type": "uint256"
        },
        {
          "indexed": false,
          "internalType": "uint256",
          "name": "newProposalThreshold",
          "type": "uint256"
        }
      ],
      "name": "ProposalThresholdSet",
      "type": "event"
    },
    {
      "anonymous": false,
      "inputs": [
        {
          "indexed": false,
          "internalType": "uint256",
          "name": "oldQuorumNumerator",
          "type": "uint256"
        },
        {
          "indexed": false,
          "internalType": "uint256",
          "name": "newQuorumNumerator",
          "type": "uint256"
        }
      ],
      "name": "QuorumNumeratorUpdated",
      "type": "event"
    },
    {
      "anonymous": false,
      "inputs": [
        {
          "indexed": false,
          "internalType": "address",
          "name": "oldTimelock",
          "type": "address"
        },
        {
          "indexed": false,
          "internalType": "address",
          "name": "newTimelock",
          "type": "address"
        }
      ],
      "name": "TimelockChange",
      "type": "event"
    },
    {
      "anonymous": false,
      "inputs": [
        {
          "indexed": true,
          "internalType": "address",
          "name": "voter",
          "type": "address"
        },
        {
          "indexed": false,
          "internalType": "uint256",
          "name": "proposalId",
          "type": "uint256"
        },
        {
          "indexed": false,
          "internalType": "uint8",
          "name": "support",
          "type": "uint8"
        },
        {
          "indexed": false,
          "internalType": "uint256",
          "name": "weight",
          "type": "uint256"
        },
        {
          "indexed": false,
          "internalType": "string",
          "name": "reason",
          "type": "string"
        }
      ],
      "name": "VoteCast",
      "type": "event"
    },
    {
      "anonymous": false,
      "inputs": [
        {
          "indexed": true,
          "internalType": "address",
          "name": "voter",
          "type": "address"
        },
        {
          "indexed": false,
          "internalType": "uint256",
          "name": "proposalId",
          "type": "uint256"
        },
        {
          "indexed": false,
          "internalType": "uint8",
          "name": "support",
          "type": "uint8"
        },
        {
          "indexed": false,
          "internalType": "uint256",
          "name": "weight",
          "type": "uint256"
        },
        {
          "indexed": false,
          "internalType": "string",
          "name": "reason",
          "type": "string"
        },
        {
          "indexed": false,
          "internalType": "bytes",
          "name": "params",
          "type": "bytes"
        }
      ],
      "name": "VoteCastWithParams",
      "type": "event"
    },
    {
      "anonymous": false,
      "inputs": [
        {
          "indexed": false,
          "internalType": "uint256",
          "name": "oldVotingDelay",
          "type": "uint256"
        },
        {
          "indexed": false,
          "internalType": "uint256",
          "name": "newVotingDelay",
          "type": "uint256"
        }
      ],
      "name": "VotingDelaySet",
      "type": "event"
    },
    {
      "anonymous": false,
      "inputs": [
        {
          "indexed": false,
          "internalType": "uint256",
          "name": "oldVotingPeriod",
          "type": "uint256"
        },
        {
          "indexed": false,
          "internalType": "uint256",
          "name": "newVotingPeriod",
          "type": "uint256"
        }
      ],
      "name": "VotingPeriodSet",
      "type": "event"
    },
    {
      "inputs": [],
      "name": "BALLOT_TYPEHASH",
      "outputs": [
        {
          "internalType": "bytes32",
          "name": "",
          "type": "bytes32"
        }
      ],
      "stateMutability": "view",
      "type": "function"
    },
    {
      "inputs": [],
      "name": "CLOCK_MODE",
      "outputs": [
        {
          "internalType": "string",
          "name": "",
          "type": "string"
        }
      ],
      "stateMutability": "view",
      "type": "function"
    },
    {
      "inputs": [],
      "name": "COUNTING_MODE",
      "outputs": [
        {
          "internalType": "string",
          "name": "",
          "type": "string"
        }
      ],
      "stateMutability": "pure",
      "type": "function"
    },
    {
      "inputs": [],
      "name": "EXTENDED_BALLOT_TYPEHASH",
      "outputs": [
        {
          "internalType": "bytes32",
          "name": "",
          "type": "bytes32"
        }
      ],
      "stateMutability": "view",
      "type": "function"
    },
    {
      "inputs": [
        {
          "internalType": "address[]",
          "name": "targets",
          "type": "address[]"
        },
        {
          "internalType": "uint256[]",
          "name": "values",
          "type": "uint256[]"
        },
        {
          "internalType": "bytes[]",
          "name": "calldatas",
          "type": "bytes[]"
        },
        {
          "internalType": "bytes32",
          "name": "descriptionHash",
          "type": "bytes32"
        }
      ],
      "name": "cancel",
      "outputs": [
        {
          "internalType": "uint256",
          "name": "",
          "type": "uint256"
        }
      ],
      "stateMutability": "nonpayable",
      "type": "function"
    },
    {
      "inputs": [
        {
          "internalType": "uint256",
          "name": "proposalId",
          "type": "uint256"
        },
        {
          "internalType": "uint8",
          "name": "support",
          "type": "uint8"
        }
      ],
      "name": "castVote",
      "outputs": [
        {
          "internalType": "uint256",
          "name": "",
          "type": "uint256"
        }
      ],
      "stateMutability": "nonpayable",
      "type": "function"
    },
    {
      "inputs": [
        {
          "internalType": "uint256",
          "name": "proposalId",
          "type": "uint256"
        },
        {
          "internalType": "uint8",
          "name": "support",
          "type": "uint8"
        },
        {
          "internalType": "address",
          "name": "voter",
          "type": "address"
        },
        {
          "internalType": "bytes",
          "name": "signature",
          "type": "bytes"
        }
      ],
      "name": "castVoteBySig",
      "outputs": [
        {
          "internalType": "uint256",
          "name": "",
          "type": "uint256"
        }
      ],
      "stateMutability": "nonpayable",
      "type": "function"
    },
    {
      "inputs": [
        {
          "internalType": "uint256",
          "name": "proposalId",
          "type": "uint256"
        },
        {
          "internalType": "uint8",
          "name": "support",
          "type": "uint8"
        },
        {
          "internalType": "string",
          "name": "reason",
          "type": "string"
        }
      ],
      "name": "castVoteWithReason",
      "outputs": [
        {
          "internalType": "uint256",
          "name": "",
          "type": "uint256"
        }
      ],
      "stateMutability": "nonpayable",
      "type": "function"
    },
    {
      "inputs": [
        {
          "internalType": "uint256",
          "name": "proposalId",
          "type": "uint256"
        },
        {
          "internalType": "uint8",
          "name": "support",
          "type": "uint8"
        },
        {
          "internalType": "string",
          "name": "reason",
          "type": "string"
        },
        {
          "internalType": "bytes",
          "name": "params",
          "type": "bytes"
        }
      ],
      "name": "castVoteWithReasonAndParams",
      "outputs": [
        {
          "internalType": "uint256",
          "name": "",
          "type": "uint256"
        }
      ],
      "stateMutability": "nonpayable",
      "type": "function"
    },
    {
      "inputs": [
        {
          "internalType": "uint256",
          "name": "proposalId",
          "type": "uint256"
        },
        {
          "internalType": "uint8",
          "name": "support",
          "type": "uint8"
        },
        {
          "internalType": "address",
          "name": "voter",
          "type": "address"
        },
        {
          "internalType": "string",
          "name": "reason",
          "type": "string"
        },
        {
          "internalType": "bytes",
          "name": "params",
          "type": "bytes"
        },
        {
          "internalType": "bytes",
          "name": "signature",
          "type": "bytes"
        }
      ],
      "name": "castVoteWithReasonAndParamsBySig",
      "outputs": [
        {
          "internalType": "uint256",
          "name": "",
          "type": "uint256"
        }
      ],
      "stateMutability": "nonpayable",
      "type": "function"
    },
    {
      "inputs": [],
      "name": "clock",
      "outputs": [
        {
          "internalType": "uint48",
          "name": "",
          "type": "uint48"
        }
      ],
      "stateMutability": "view",
      "type": "function"
    },
    {
      "inputs": [],
      "name": "eip712Domain",
      "outputs": [
        {
          "internalType": "bytes1",
          "name": "fields",
          "type": "bytes1"
        },
        {
          "internalType": "string",
          "name": "name",
          "type": "string"
        },
        {
          "internalType": "string",
          "name": "version",
          "type": "string"
        },
        {
          "internalType": "uint256",
          "name": "chainId",
          "type": "uint256"
        },
        {
          "internalType": "address",
          "name": "verifyingContract",
          "type": "address"
        },
        {
          "internalType": "bytes32",
          "name": "salt",
          "type": "bytes32"
        },
        {
          "internalType": "uint256[]",
          "name": "extensions",
          "type": "uint256[]"
        }
      ],
      "stateMutability": "view",
      "type": "function"
    },
    {
      "inputs": [
        {
          "internalType": "address[]",
          "name": "targets",
          "type": "address[]"
        },
        {
          "internalType": "uint256[]",
          "name": "values",
          "type": "uint256[]"
        },
        {
          "internalType": "bytes[]",
          "name": "calldatas",
          "type": "bytes[]"
        },
        {
          "internalType": "bytes32",
          "name": "descriptionHash",
          "type": "bytes32"
        }
      ],
      "name": "execute",
      "outputs": [
        {
          "internalType": "uint256",
          "name": "",
          "type": "uint256"
        }
      ],
      "stateMutability": "payable",
      "type": "function"
    },
    {
      "inputs": [
        {
          "internalType": "address[]",
          "name": "targets",
          "type": "address[]"
        },
        {
          "internalType": "uint256[]",
          "name": "values",
          "type": "uint256[]"
        },
        {
          "internalType": "bytes[]",
          "name": "calldatas",
          "type": "bytes[]"
        },
        {
          "internalType": "bytes32",
          "name": "descriptionHash",
          "type": "bytes32"
        }
      ],
      "name": "getProposalId",
      "outputs": [
        {
          "internalType": "uint256",
          "name": "",
          "type": "uint256"
        }
      ],
      "stateMutability": "view",
      "type": "function"
    },
    {
      "inputs": [
        {
          "internalType": "address",
          "name": "account",
          "type": "address"
        },
        {
          "internalType": "uint256",
          "name": "timepoint",
          "type": "uint256"
        }
      ],
      "name": "getVotes",
      "outputs": [
        {
          "internalType": "uint256",
          "name": "",
          "type": "uint256"
        }
      ],
      "stateMutability": "view",
      "type": "function"
    },
    {
      "inputs": [
        {
          "internalType": "address",
          "name": "account",
          "type": "address"
        },
        {
          "internalType": "uint256",
          "name": "timepoint",
          "type": "uint256"
        },
        {
          "internalType": "bytes",
          "name": "params",
          "type": "bytes"
        }
      ],
      "name": "getVotesWithParams",
      "outputs": [
        {
          "internalType": "uint256",
          "name": "",
          "type": "uint256"
        }
      ],
      "stateMutability": "view",
      "type": "function"
    },
    {
      "inputs": [
        {
          "internalType": "uint256",
          "name": "proposalId",
          "type": "uint256"
        },
        {
          "internalType": "address",
          "name": "account",
          "type": "address"
        }
      ],
      "name": "hasVoted",
      "outputs": [
        {
          "internalType": "bool",
          "name": "",
          "type": "bool"
        }
      ],
      "stateMutability": "view",
      "type": "function"
    },
    {
      "inputs": [
        {
          "internalType": "address[]",
          "name": "targets",
          "type": "address[]"
        },
        {
          "internalType": "uint256[]",
          "name": "values",
          "type": "uint256[]"
        },
        {
          "internalType": "bytes[]",
          "name": "calldatas",
          "type": "bytes[]"
        },
        {
          "internalType": "bytes32",
          "name": "descriptionHash",
          "type": "bytes32"
        }
      ],
      "name": "hashProposal",
      "outputs": [
        {
          "internalType": "uint256",
          "name": "",
          "type": "uint256"
        }
      ],
      "stateMutability": "pure",
      "type": "function"
    },
    {
      "inputs": [
        {
          "internalType": "contract IVotes",
          "name": "_token",
          "type": "address"
        },
        {
          "internalType": "contract TimelockControllerUpgradeable",
          "name": "_timelock",
          "type": "address"
        },
        {
          "internalType": "uint48",
          "name": "_votingDelay",
          "type": "uint48"
        },
        {
          "internalType": "uint32",
          "name": "_votingPeroid",
          "type": "uint32"
        },
        {
          "internalType": "uint256",
          "name": "_quorumPercentage",
          "type": "uint256"
        }
      ],
      "name": "initialize",
      "outputs": [],
      "stateMutability": "nonpayable",
      "type": "function"
    },
    {
      "inputs": [],
      "name": "name",
      "outputs": [
        {
          "internalType": "string",
          "name": "",
          "type": "string"
        }
      ],
      "stateMutability": "view",
      "type": "function"
    },
    {
      "inputs": [
        {
          "internalType": "address",
          "name": "owner",
          "type": "address"
        }
      ],
      "name": "nonces",
      "outputs": [
        {
          "internalType": "uint256",
          "name": "",
          "type": "uint256"
        }
      ],
      "stateMutability": "view",
      "type": "function"
    },
    {
      "inputs": [
        {
          "internalType": "address",
          "name": "",
          "type": "address"
        },
        {
          "internalType": "address",
          "name": "",
          "type": "address"
        },
        {
          "internalType": "uint256[]",
          "name": "",
          "type": "uint256[]"
        },
        {
          "internalType": "uint256[]",
          "name": "",
          "type": "uint256[]"
        },
        {
          "internalType": "bytes",
          "name": "",
          "type": "bytes"
        }
      ],
      "name": "onERC1155BatchReceived",
      "outputs": [
        {
          "internalType": "bytes4",
          "name": "",
          "type": "bytes4"
        }
      ],
      "stateMutability": "nonpayable",
      "type": "function"
    },
    {
      "inputs": [
        {
          "internalType": "address",
          "name": "",
          "type": "address"
        },
        {
          "internalType": "address",
          "name": "",
          "type": "address"
        },
        {
          "internalType": "uint256",
          "name": "",
          "type": "uint256"
        },
        {
          "internalType": "uint256",
          "name": "",
          "type": "uint256"
        },
        {
          "internalType": "bytes",
          "name": "",
          "type": "bytes"
        }
      ],
      "name": "onERC1155Received",
      "outputs": [
        {
          "internalType": "bytes4",
          "name": "",
          "type": "bytes4"
        }
      ],
      "stateMutability": "nonpayable",
      "type": "function"
    },
    {
      "inputs": [
        {
          "internalType": "address",
          "name": "",
          "type": "address"
        },
        {
          "internalType": "address",
          "name": "",
          "type": "address"
        },
        {
          "internalType": "uint256",
          "name": "",
          "type": "uint256"
        },
        {
          "internalType": "bytes",
          "name": "",
          "type": "bytes"
        }
      ],
      "name": "onERC721Received",
      "outputs": [
        {
          "internalType": "bytes4",
          "name": "",
          "type": "bytes4"
        }
      ],
      "stateMutability": "nonpayable",
      "type": "function"
    },
    {
      "inputs": [
        {
          "internalType": "uint256",
          "name": "proposalId",
          "type": "uint256"
        }
      ],
      "name": "proposalDeadline",
      "outputs": [
        {
          "internalType": "uint256",
          "name": "",
          "type": "uint256"
        }
      ],
      "stateMutability": "view",
      "type": "function"
    },
    {
      "inputs": [
        {
          "internalType": "uint256",
          "name": "proposalId",
          "type": "uint256"
        }
      ],
      "name": "proposalEta",
      "outputs": [
        {
          "internalType": "uint256",
          "name": "",
          "type": "uint256"
        }
      ],
      "stateMutability": "view",
      "type": "function"
    },
    {
      "inputs": [
        {
          "internalType": "uint256",
          "name": "proposalId",
          "type": "uint256"
        }
      ],
      "name": "proposalNeedsQueuing",
      "outputs": [
        {
          "internalType": "bool",
          "name": "",
          "type": "bool"
        }
      ],
      "stateMutability": "view",
      "type": "function"
    },
    {
      "inputs": [
        {
          "internalType": "uint256",
          "name": "proposalId",
          "type": "uint256"
        }
      ],
      "name": "proposalProposer",
      "outputs": [
        {
          "internalType": "address",
          "name": "",
          "type": "address"
        }
      ],
      "stateMutability": "view",
      "type": "function"
    },
    {
      "inputs": [
        {
          "internalType": "uint256",
          "name": "proposalId",
          "type": "uint256"
        }
      ],
      "name": "proposalSnapshot",
      "outputs": [
        {
          "internalType": "uint256",
          "name": "",
          "type": "uint256"
        }
      ],
      "stateMutability": "view",
      "type": "function"
    },
    {
      "inputs": [],
      "name": "proposalThreshold",
      "outputs": [
        {
          "internalType": "uint256",
          "name": "",
          "type": "uint256"
        }
      ],
      "stateMutability": "view",
      "type": "function"
    },
    {
      "inputs": [
        {
          "internalType": "uint256",
          "name": "proposalId",
          "type": "uint256"
        }
      ],
      "name": "proposalVotes",
      "outputs": [
        {
          "internalType": "uint256",
          "name": "againstVotes",
          "type": "uint256"
        },
        {
          "internalType": "uint256",
          "name": "forVotes",
          "type": "uint256"
        },
        {
          "internalType": "uint256",
          "name": "abstainVotes",
          "type": "uint256"
        }
      ],
      "stateMutability": "view",
      "type": "function"
    },
    {
      "inputs": [
        {
          "internalType": "address[]",
          "name": "targets",
          "type": "address[]"
        },
        {
          "internalType": "uint256[]",
          "name": "values",
          "type": "uint256[]"
        },
        {
          "internalType": "bytes[]",
          "name": "calldatas",
          "type": "bytes[]"
        },
        {
          "internalType": "string",
          "name": "description",
          "type": "string"
        }
      ],
      "name": "propose",
      "outputs": [
        {
          "internalType": "uint256",
          "name": "",
          "type": "uint256"
        }
      ],
      "stateMutability": "nonpayable",
      "type": "function"
    },
    {
      "inputs": [
        {
          "internalType": "address[]",
          "name": "targets",
          "type": "address[]"
        },
        {
          "internalType": "uint256[]",
          "name": "values",
          "type": "uint256[]"
        },
        {
          "internalType": "bytes[]",
          "name": "calldatas",
          "type": "bytes[]"
        },
        {
          "internalType": "bytes32",
          "name": "descriptionHash",
          "type": "bytes32"
        }
      ],
      "name": "queue",
      "outputs": [
        {
          "internalType": "uint256",
          "name": "",
          "type": "uint256"
        }
      ],
      "stateMutability": "nonpayable",
      "type": "function"
    },
    {
      "inputs": [
        {
          "internalType": "uint256",
          "name": "timepoint",
          "type": "uint256"
        }
      ],
      "name": "quorum",
      "outputs": [
        {
          "internalType": "uint256",
          "name": "",
          "type": "uint256"
        }
      ],
      "stateMutability": "view",
      "type": "function"
    },
    {
      "inputs": [],
      "name": "quorumDenominator",
      "outputs": [
        {
          "internalType": "uint256",
          "name": "",
          "type": "uint256"
        }
      ],
      "stateMutability": "view",
      "type": "function"
    },
    {
      "inputs": [
        {
          "internalType": "uint256",
          "name": "timepoint",
          "type": "uint256"
        }
      ],
      "name": "quorumNumerator",
      "outputs": [
        {
          "internalType": "uint256",
          "name": "",
          "type": "uint256"
        }
      ],
      "stateMutability": "view",
      "type": "function"
    },
    {
      "inputs": [],
      "name": "quorumNumerator",
      "outputs": [
        {
          "internalType": "uint256",
          "name": "",
          "type": "uint256"
        }
      ],
      "stateMutability": "view",
      "type": "function"
    },
    {
      "inputs": [
        {
          "internalType": "address",
          "name": "target",
          "type": "address"
        },
        {
          "internalType": "uint256",
          "name": "value",
          "type": "uint256"
        },
        {
          "internalType": "bytes",
          "name": "data",
          "type": "bytes"
        }
      ],
      "name": "relay",
      "outputs": [],
      "stateMutability": "payable",
      "type": "function"
    },
    {
      "inputs": [
        {
          "internalType": "uint256",
          "name": "newProposalThreshold",
          "type": "uint256"
        }
      ],
      "name": "setProposalThreshold",
      "outputs": [],
      "stateMutability": "nonpayable",
      "type": "function"
    },
    {
      "inputs": [
        {
          "internalType": "uint48",
          "name": "newVotingDelay",
          "type": "uint48"
        }
      ],
      "name": "setVotingDelay",
      "outputs": [],
      "stateMutability": "nonpayable",
      "type": "function"
    },
    {
      "inputs": [
        {
          "internalType": "uint32",
          "name": "newVotingPeriod",
          "type": "uint32"
        }
      ],
      "name": "setVotingPeriod",
      "outputs": [],
      "stateMutability": "nonpayable",
      "type": "function"
    },
    {
      "inputs": [
        {
          "internalType": "uint256",
          "name": "proposalId",
          "type": "uint256"
        }
      ],
      "name": "state",
      "outputs": [
        {
          "internalType": "enum IGovernor.ProposalState",
          "name": "",
          "type": "uint8"
        }
      ],
      "stateMutability": "view",
      "type": "function"
    },
    {
      "inputs": [
        {
          "internalType": "bytes4",
          "name": "interfaceId",
          "type": "bytes4"
        }
      ],
      "name": "supportsInterface",
      "outputs": [
        {
          "internalType": "bool",
          "name": "",
          "type": "bool"
        }
      ],
      "stateMutability": "view",
      "type": "function"
    },
    {
      "inputs": [],
      "name": "timelock",
      "outputs": [
        {
          "internalType": "address",
          "name": "",
          "type": "address"
        }
      ],
      "stateMutability": "view",
      "type": "function"
    },
    {
      "inputs": [],
      "name": "token",
      "outputs": [
        {
          "internalType": "contract IERC5805",
          "name": "",
          "type": "address"
        }
      ],
      "stateMutability": "view",
      "type": "function"
    },
    {
      "inputs": [
        {
          "internalType": "uint256",
          "name": "newQuorumNumerator",
          "type": "uint256"
        }
      ],
      "name": "updateQuorumNumerator",
      "outputs": [],
      "stateMutability": "nonpayable",
      "type": "function"
    },
    {
      "inputs": [
        {
          "internalType": "contract TimelockControllerUpgradeable",
          "name": "newTimelock",
          "type": "address"
        }
      ],
      "name": "updateTimelock",
      "outputs": [],
      "stateMutability": "nonpayable",
      "type": "function"
    },
    {
      "inputs": [],
      "name": "version",
      "outputs": [
        {
          "internalType": "string",
          "name": "",
          "type": "string"
        }
      ],
      "stateMutability": "view",
      "type": "function"
    },
    {
      "inputs": [],
      "name": "votingDelay",
      "outputs": [
        {
          "internalType": "uint256",
          "name": "",
          "type": "uint256"
        }
      ],
      "stateMutability": "view",
      "type": "function"
    },
    {
      "inputs": [],
      "name": "votingPeriod",
      "outputs": [
        {
          "internalType": "uint256",
          "name": "",
          "type": "uint256"
        }
      ],
      "stateMutability": "view",
      "type": "function"
    },
    {
      "stateMutability": "payable",
      "type": "receive"
    }
  ],
  "bytecode": "0x6080604052348015600e575f5ffd5b5060156019565b60c9565b7ff0c57e16840df040f15088dc2f81fe391c3923bec73e23a9662efc9c229c6a00805468010000000000000000900460ff161560685760405163f92ee8a960e01b815260040160405180910390fd5b80546001600160401b039081161460c65780546001600160401b0319166001600160401b0390811782556040519081527fc7f505b2f371ae2175ee4913f4499e1f2633a7b5936321eed1cdaeb6115181d29060200160405180910390a15b50565b614b1d806100d65f395ff3fe6080604052600436106102c2575f3560e01c806384b0196e1161016f578063c01f9e37116100d8578063deaaa7cc11610092578063ece40cc11161006d578063ece40cc1146109c8578063f23a6e61146109e7578063f8ce560a14610a06578063fc0c546a14610a25575f5ffd5b8063deaaa7cc14610957578063e540d01d1461098a578063eb9019d4146109a9575f5ffd5b8063c01f9e371461088e578063c28bc2fa146108ad578063c4bdd82c146108c0578063c59057e4146108df578063d33219b4146108fe578063dd4e2ba514610912575f5ffd5b8063a890c91011610129578063a890c910146107bc578063a8f8a668146107db578063a9a95294146107fa578063ab58fb8e14610819578063b58131b01461085b578063bc197c811461086f575f5ffd5b806384b0196e146107055780638ff262e31461072c57806391ddadf41461074b57806397c3d334146107765780639a802a6d14610789578063a7713a70146107a8575f5ffd5b8063438596321161022b5780635b8d0e0d116101e557806379051887116101c057806379051887146106555780637b3c71d3146106745780637d5e81e2146106935780637ecebe00146106b2575f5ffd5b80635b8d0e0d146105f85780635f398a141461061757806360c4247f14610636575f5ffd5b806343859632146104ef578063452115d6146105435780634bf5d7e914610562578063544ffc9c1461057657806354fd4d50146105b057806356781388146105d9575f5ffd5b8063160cbed71161027c578063160cbed7146104175780632656227d146104365780632d63f693146104495780632fe3e261146104685780633932abb11461049b5780633e4f49e6146104c3575f5ffd5b806301ffc9a7146102fd57806302a251a31461033157806306f3f9e61461036857806306fdde0314610387578063143489d0146103a8578063150b7a02146103df575f5ffd5b366102f957306102d0610a39565b6001600160a01b0316146102f757604051637485328f60e11b815260040160405180910390fd5b005b5f5ffd5b348015610308575f5ffd5b5061031c6103173660046138b3565b610a47565b60405190151581526020015b60405180910390f35b34801561033c575f5ffd5b505f516020614a285f395f51905f5254600160301b900463ffffffff165b604051908152602001610328565b348015610373575f5ffd5b506102f76103823660046138da565b610ab3565b348015610392575f5ffd5b5061039b610ac7565b604051610328919061391f565b3480156103b3575f5ffd5b506103c76103c23660046138da565b610b68565b6040516001600160a01b039091168152602001610328565b3480156103ea575f5ffd5b506103fe6103f9366004613a08565b610b8e565b6040516001600160e01b03199091168152602001610328565b348015610422575f5ffd5b5061035a610431366004613bd8565b610bd0565b61035a610444366004613bd8565b610cae565b348015610454575f5ffd5b5061035a6104633660046138da565b610e2d565b348015610473575f5ffd5b5061035a7f3e83946653575f9a39005e1545185629e92736b7528ab20ca3816f315424a81181565b3480156104a6575f5ffd5b505f516020614a285f395f51905f525465ffffffffffff1661035a565b3480156104ce575f5ffd5b506104e26104dd3660046138da565b610e59565b6040516103289190613c9f565b3480156104fa575f5ffd5b5061031c610509366004613cad565b5f9182525f516020614a885f395f51905f52602090815260408084206001600160a01b039390931684526003909201905290205460ff1690565b34801561054e575f5ffd5b5061035a61055d366004613bd8565b610e63565b34801561056d575f5ffd5b5061039b610ec9565b348015610581575f5ffd5b506105956105903660046138da565b610f70565b60408051938452602084019290925290820152606001610328565b3480156105bb575f5ffd5b506040805180820190915260018152603160f81b602082015261039b565b3480156105e4575f5ffd5b5061035a6105f3366004613ceb565b610fa1565b348015610603575f5ffd5b5061035a610612366004613d59565b610fc8565b348015610622575f5ffd5b5061035a610631366004613e15565b611085565b348015610641575f5ffd5b5061035a6106503660046138da565b6110cd565b348015610660575f5ffd5b506102f761066f366004613ea9565b611100565b34801561067f575f5ffd5b5061035a61068e366004613ec4565b611111565b34801561069e575f5ffd5b5061035a6106ad366004613f19565b611161565b3480156106bd575f5ffd5b5061035a6106cc366004613fd5565b6001600160a01b03165f9081527f5ab42ced628888259c08ac98db1eb0cf702fc1501344311d8b100cd1bfe4bb00602052604090205490565b348015610710575f5ffd5b50610719611217565b604051610328979695949392919061402a565b348015610737575f5ffd5b5061035a610746366004614099565b6112c0565b348015610756575f5ffd5b5061075f611318565b60405165ffffffffffff9091168152602001610328565b348015610781575f5ffd5b50606461035a565b348015610794575f5ffd5b5061035a6107a33660046140e6565b611386565b3480156107b3575f5ffd5b5061035a611392565b3480156107c7575f5ffd5b506102f76107d6366004613fd5565b6113cc565b3480156107e6575f5ffd5b5061035a6107f5366004613bd8565b6113dd565b348015610805575f5ffd5b5061031c6108143660046138da565b6113ea565b348015610824575f5ffd5b5061035a6108333660046138da565b5f9081525f516020614a085f395f51905f52602052604090206001015465ffffffffffff1690565b348015610866575f5ffd5b5061035a6113f2565b34801561087a575f5ffd5b506103fe61088936600461413a565b611408565b348015610899575f5ffd5b5061035a6108a83660046138da565b61144b565b6102f76108bb3660046141d1565b6114a9565b3480156108cb575f5ffd5b506102f76108da366004614223565b611525565b3480156108ea575f5ffd5b5061035a6108f9366004613bd8565b611676565b348015610909575f5ffd5b506103c76116af565b34801561091d575f5ffd5b506040805180820190915260208082527f737570706f72743d627261766f2671756f72756d3d666f722c6162737461696e9082015261039b565b348015610962575f5ffd5b5061035a7ff2aad550cf55f045cb27e9c559f9889fdfb6e6cdaa032301d6ea397784ae51d781565b348015610995575f5ffd5b506102f76109a4366004614281565b6116d0565b3480156109b4575f5ffd5b5061035a6109c336600461429a565b6116e1565b3480156109d3575f5ffd5b506102f76109e23660046138da565b611700565b3480156109f2575f5ffd5b506103fe610a013660046142c4565b611711565b348015610a11575f5ffd5b5061035a610a203660046138da565b611754565b348015610a30575f5ffd5b506103c76117dc565b5f610a426116af565b905090565b5f6001600160e01b031982166366defe7760e11b1480610a7757506001600160e01b031982166332a2ad4360e11b145b80610a9257506001600160e01b03198216630271189760e51b145b80610aad57506301ffc9a760e01b6001600160e01b03198316145b92915050565b610abb611804565b610ac48161188d565b50565b5f516020614ac85f395f51905f528054606091908190610ae69061431b565b80601f0160208091040260200160405190810160405280929190818152602001828054610b129061431b565b8015610b5d5780601f10610b3457610100808354040283529160200191610b5d565b820191905f5260205f20905b815481529060010190602001808311610b4057829003601f168201915b505050505091505090565b5f9081525f516020614a085f395f51905f5260205260409020546001600160a01b031690565b5f30610b98610a39565b6001600160a01b031614610bbf57604051637485328f60e11b815260040160405180910390fd5b50630a85bd0160e11b949350505050565b5f5f516020614ac85f395f51905f5281610bec878787876113dd565b9050610c0181610bfc6004611943565b611965565b505f610c1082898989896119a2565b905065ffffffffffff811615610c8a575f82815260018481016020908152604092839020909101805465ffffffffffff191665ffffffffffff85169081179091558251858152918201527f9a2e42fd6722813d69113e7d0079d3d940171428df7373df9c7f7617cfda2892910160405180910390a1610ca3565b604051634844252360e11b815260040160405180910390fd5b509695505050505050565b5f5f516020614ac85f395f51905f5281610cca878787876113dd565b9050610cea81610cda6005611943565b610ce46004611943565b17611965565b505f8181526001830160205260409020805460ff60f01b1916600160f01b17905530610d14610a39565b6001600160a01b031614610d9f575f5b8751811015610d9d57306001600160a01b0316888281518110610d4957610d49614353565b60200260200101516001600160a01b031603610d9557610d95868281518110610d7457610d74614353565b602002602001015180519060200120846002016119b090919063ffffffff16565b600101610d24565b505b610dac8188888888611a11565b30610db5610a39565b6001600160a01b031614158015610de3575060028201546001600160801b03808216600160801b9092041614155b15610def575f60028301555b6040518181527f712ae1383f79ac853f8d882153778e0260ef8f03b504e2866e0593e04d2b291f906020015b60405180910390a19695505050505050565b5f9081525f516020614a085f395f51905f526020526040902054600160a01b900465ffffffffffff1690565b5f610aad82611a25565b5f5f610e71868686866113dd565b905033610e7e8282611b70565b610eb257604051638fe5d8a960e01b8152600481018390526001600160a01b03821660248201526044015b60405180910390fd5b610ebe87878787611bb9565b979650505050505050565b6060610ed36117dc565b6001600160a01b0316634bf5d7e96040518163ffffffff1660e01b81526004015f60405180830381865afa925050508015610f2f57506040513d5f823e601f3d908101601f19168201604052610f2c9190810190614367565b60015b610f6b575060408051808201909152601d81527f6d6f64653d626c6f636b6e756d6265722666726f6d3d64656661756c74000000602082015290565b919050565b5f8181525f516020614a885f395f51905f5260205260409020805460018201546002909201549091905b9193909250565b5f80339050610fc084828560405180602001604052805f815250611bc6565b949350505050565b5f61100e88888888888080601f0160208091040260200160405190810160405280939291908181526020018383808284375f920191909152508a9250899150611be79050565b611036576040516394ab6c0760e01b81526001600160a01b0387166004820152602401610ea9565b61107988878988888080601f0160208091040260200160405190810160405280939291908181526020018383808284375f920191909152508a9250611c97915050565b98975050505050505050565b5f80339050610ebe87828888888080601f0160208091040260200160405190810160405280939291908181526020018383808284375f920191909152508a9250611c97915050565b5f7fe770710421fd2cad75ad828c61aa98f2d77d423a440b67872d0f65554148e0006110f98184611d75565b9392505050565b611108611804565b610ac481611dc2565b5f8033905061115786828787878080601f0160208091040260200160405190810160405280939291908181526020018383808284375f92019190915250611bc692505050565b9695505050505050565b5f3361116d8184611e44565b6111955760405163d9b3955760e01b81526001600160a01b0382166004820152602401610ea9565b5f61119e6113f2565b9050801561120a575f6111cc8360016111b5611318565b6111bf91906143ef565b65ffffffffffff166116e1565b90508181101561120857604051636121770b60e11b81526001600160a01b03841660048201526024810182905260448101839052606401610ea9565b505b610ebe8787878786611ec8565b5f60608082808083815f516020614a485f395f51905f52805490915015801561124257506001810154155b6112865760405162461bcd60e51b81526020600482015260156024820152741152540dcc4c8e88155b9a5b9a5d1a585b1a5e9959605a1b6044820152606401610ea9565b61128e612119565b611296612157565b604080515f80825260208201909252600f60f81b9c939b5091995046985030975095509350915050565b5f6112cd85858585612195565b6112f5576040516394ab6c0760e01b81526001600160a01b0384166004820152602401610ea9565b61130f85848660405180602001604052805f815250611bc6565b95945050505050565b5f6113216117dc565b6001600160a01b03166391ddadf46040518163ffffffff1660e01b8152600401602060405180830381865afa92505050801561137a575060408051601f3d908101601f191682019092526113779181019061440d565b60015b610f6b57610a42612201565b5f610fc084848461220b565b5f7fe770710421fd2cad75ad828c61aa98f2d77d423a440b67872d0f65554148e0006113bd81612285565b6001600160d01b031691505090565b6113d4611804565b610ac4816122c9565b5f61130f85858585611676565b5f6001610aad565b5f610a425f516020614a685f395f51905f525490565b5f30611412610a39565b6001600160a01b03161461143957604051637485328f60e11b815260040160405180910390fd5b5063bc197c8160e01b95945050505050565b5f8181525f516020614a085f395f51905f5260205260408120545f516020614ac85f395f51905f529061149a90600160d01b810463ffffffff1690600160a01b900465ffffffffffff16614428565b65ffffffffffff169392505050565b6114b1611804565b5f5f856001600160a01b03168585856040516114ce929190614446565b5f6040518083038185875af1925050503d805f8114611508576040519150601f19603f3d011682016040523d82523d5f602084013e61150d565b606091505b509150915061151c828261233e565b50505050505050565b5f61152e61235a565b805490915060ff600160401b82041615906001600160401b03165f811580156115545750825b90505f826001600160401b0316600114801561156f5750303b155b90508115801561157d575080155b1561159b5760405163f92ee8a960e01b815260040160405180910390fd5b845467ffffffffffffffff1916600117855583156115c557845460ff60401b1916600160401b1785555b6115f66040518060400160405280601081526020016f11dbdd995c9b995c90dbdb9d1c9858dd60821b815250612382565b61160188885f6123ba565b6116096123d2565b6116128a6123dc565b61161b866123ed565b611624896123fe565b831561166a57845460ff60401b19168555604051600181527fc7f505b2f371ae2175ee4913f4499e1f2633a7b5936321eed1cdaeb6115181d29060200160405180910390a15b50505050505050505050565b5f8484848460405160200161168e94939291906144e8565b60408051601f19818403018152919052805160209091012095945050505050565b5f805f516020614aa85f395f51905f525b546001600160a01b031692915050565b6116d8611804565b610ac48161240f565b5f6110f983836116fb60408051602081019091525f815290565b61220b565b611708611804565b610ac4816124bc565b5f3061171b610a39565b6001600160a01b03161461174257604051637485328f60e11b815260040160405180910390fd5b5063f23a6e6160e01b95945050505050565b5f610aad6117606117dc565b6001600160a01b0316638e539e8c846040518263ffffffff1660e01b815260040161178d91815260200190565b602060405180830381865afa1580156117a8573d5f5f3e3d5ffd5b505050506040513d601f19601f820116820180604052508101906117cc9190614532565b6117d5846110cd565b6064612509565b5f807f3ba4977254e415696610a40ebf2258dbfa0ec6a2ff64e84bfe715ff16977cc006116c0565b5f516020614ac85f395f51905f523361181b610a39565b6001600160a01b031614611844576040516347096e4760e01b8152336004820152602401610ea9565b3061184d610a39565b6001600160a01b031614610ac4575f803660405161186c929190614446565b604051809103902090505b80611884836002016125b9565b03611877575050565b7fe770710421fd2cad75ad828c61aa98f2d77d423a440b67872d0f65554148e0006064808311156118db5760405163243e544560e01b81526004810184905260248101829052604401610ea9565b5f6118e4611392565b90506119026118f1611318565b6118fa86612626565b85919061265d565b505060408051828152602081018690527f0553476bf02ef2726e8ce5ced78d63e26e602e4a2257b1f559418e24b4633997910160405180910390a150505050565b5f81600781111561195657611956613c6b565b600160ff919091161b92915050565b5f5f61197084610e59565b90505f8361197d83611943565b16036110f9578381846040516331b75e4d60e01b8152600401610ea993929190614549565b5f6111578686868686612677565b81546001600160801b03600160801b8204811691811660018301909116036119dc576119dc604161281d565b6001600160801b038082165f90815260018086016020526040909120939093558354919092018216600160801b029116179055565b611a1e858585858561282e565b5050505050565b5f5f516020614aa85f395f51905f5281611a3e846128cf565b90506005816007811115611a5457611a54613c6b565b14611a60579392505050565b5f848152600183016020526040908190205483549151632c258a9f60e11b81526004810182905290916001600160a01b03169063584b153e90602401602060405180830381865afa158015611ab7573d5f5f3e3d5ffd5b505050506040513d601f19601f82011682018060405250810190611adb919061456b565b15611aeb57506005949350505050565b8254604051632ab0f52960e01b8152600481018390526001600160a01b0390911690632ab0f52990602401602060405180830381865afa158015611b31573d5f5f3e3d5ffd5b505050506040513d601f19601f82011682018060405250810190611b55919061456b565b15611b6557506007949350505050565b506002949350505050565b5f80611b7b84610e59565b6007811115611b8c57611b8c613c6b565b1480156110f95750611b9d83610b68565b6001600160a01b0316826001600160a01b031614905092915050565b5f61130f85858585612a3b565b5f61130f85858585611be260408051602081019091525f815290565b611c97565b5f610ebe85611c917f3e83946653575f9a39005e1545185629e92736b7528ab20ca3816f315424a8118a8a8a611c1c8c612ae4565b8b516020808e01919091208c518d830120604051611c7698979695949301968752602087019590955260ff9390931660408601526001600160a01b03919091166060850152608084015260a083015260c082015260e00190565b60405160208183030381529060405280519060200120612b25565b84612b51565b5f611ca686610bfc6001611943565b505f611cbb86611cb589610e2d565b8561220b565b90505f611ccb8888888588612bc1565b905083515f03611d2157866001600160a01b03167fb8e138887d0aa13bab447e82de9d5c1777041ecd21ca36ba824ff1e6c07ddda489888489604051611d14949392919061458a565b60405180910390a2610ebe565b866001600160a01b03167fe2babfbac5889a709b63bb7f598b324e08bc5a4fb9ec647fb3cbc9ec07eb87128988848989604051611d629594939291906145b1565b60405180910390a2979650505050505050565b5f5f5f611d8185612cca565b9250925050838265ffffffffffff161115611dae57611da9611da285612d22565b8690612d54565b611db0565b805b6001600160d01b031695945050505050565b5f516020614a285f395f51905f52546040805165ffffffffffff9283168152918316602083015280515f516020614a685f395f51905f52927fc565b045403dc03c2eea82b81a0465edad9e2e7fc4d97e11421c209da93d7a9392908290030190a1600101805465ffffffffffff191665ffffffffffff92909216919091179055565b80515f906034811015611e5b576001915050610aad565b60131981840101516001600160b01b03198116692370726f706f7365723d60b01b14611e8c57600192505050610aad565b5f5f611e9c86602a860386612df6565b91509150811580610ebe5750866001600160a01b0316816001600160a01b031614979650505050505050565b5f805f516020614ac85f395f51905f529050611eed87878787805190602001206113dd565b915085518751141580611f0257508451875114155b80611f0c57508651155b15611f4157865185518751604051630447b05d60e41b8152600481019390935260248301919091526044820152606401610ea9565b5f828152600182016020526040902054600160a01b900465ffffffffffff1615611f8c5781611f6f83610e59565b6040516331b75e4d60e01b8152610ea99291905f90600401614549565b5f611faa5f516020614a285f395f51905f525465ffffffffffff1690565b611fb2611318565b65ffffffffffff16611fc491906145ea565b90505f611fea5f516020614a285f395f51905f525463ffffffff600160301b9091041690565b5f858152600185016020526040902080546001600160a01b0319166001600160a01b03881617815590915061201e83612d22565b815465ffffffffffff91909116600160a01b0265ffffffffffff60a01b1990911617815561204b82612e9f565b815463ffffffff91909116600160d01b0263ffffffff60d01b1990911617815589517f7d84a6263ae0d98d3329bd7b46bb4e8d6f98cd35a7adb45c274c8b7fd5ebd5e090869088908d908d906001600160401b038111156120ae576120ae613945565b6040519080825280602002602001820160405280156120e157816020015b60608152602001906001900390816120cc5790505b508d896120ee8a826145ea565b8f604051612104999897969594939291906145fd565b60405180910390a15050505095945050505050565b7fa16a46d94261c7517cc8ff89f61c0ce93598e3c849801011dee649a6a557d10280546060915f516020614a485f395f51905f5291610ae69061431b565b7fa16a46d94261c7517cc8ff89f61c0ce93598e3c849801011dee649a6a557d10380546060915f516020614a485f395f51905f5291610ae69061431b565b5f61130f83611c917ff2aad550cf55f045cb27e9c559f9889fdfb6e6cdaa032301d6ea397784ae51d78888886121ca8a612ae4565b60408051602081019690965285019390935260ff90911660608401526001600160a01b0316608083015260a082015260c001611c76565b5f610a4243612d22565b5f6122146117dc565b604051630748d63560e31b81526001600160a01b038681166004830152602482018690529190911690633a46b1a890604401602060405180830381865afa158015612261573d5f5f3e3d5ffd5b505050506040513d601f19601f82011682018060405250810190610fc09190614532565b80545f9080156122c1576122ab8361229e6001846146d8565b5f91825260209091200190565b54600160301b90046001600160d01b03166110f9565b5f9392505050565b5f516020614aa85f395f51905f528054604080516001600160a01b039283168152918416602083015280517f08f74ea46ef7894f65eabfb5e6e695de773a000b47c529ab559178069b2264019281900390910190a180546001600160a01b0319166001600160a01b0392909216919091179055565b6060826123535761234e82612ecf565b610aad565b5080610aad565b5f807ff0c57e16840df040f15088dc2f81fe391c3923bec73e23a9662efc9c229c6a00610aad565b61238a612ef7565b6123b1816123ac6040805180820190915260018152603160f81b602082015290565b612f1c565b610ac481612f7b565b6123c2612ef7565b6123cd838383612f9c565b505050565b6123da612ef7565b565b6123e4612ef7565b610ac481612fbf565b6123f5612ef7565b610ac481613008565b612406612ef7565b610ac481613010565b5f516020614a685f395f51905f5263ffffffff82165f036124455760405163f1cfbf0560e01b81525f6004820152602401610ea9565b60018101546040805163ffffffff600160301b9093048316815291841660208301527f7e3f7f0708a84de9203036abaa450dccc85ad5ff52f78c170f3edb55cf5e8828910160405180910390a1600101805463ffffffff909216600160301b0269ffffffff00000000000019909216919091179055565b5f516020614a685f395f51905f528054604080519182526020820184905280517fccb45da8d5717e6c4544694297c4ba5cf151d455c9bb0ed4fc7a38411bc054619281900390910190a155565b5f5f5f6125168686613018565b91509150815f0361253a57838181612530576125306146eb565b04925050506110f9565b81841161255157612551600385150260111861281d565b5f848688095f868103871696879004966002600389028118808a02820302808a02820302808a02820302808a02820302808a02820302808a02909103029181900381900460010185841190960395909502919093039390930492909217029150509392505050565b80545f906001600160801b0380821691600160801b90041681036125e1576125e1603161281d565b6001600160801b038181165f908152600185810160205260408220805492905585546fffffffffffffffffffffffffffffffff19169301909116919091179092555090565b5f6001600160d01b03821115612659576040516306dfcc6560e41b815260d0600482015260248101839052604401610ea9565b5090565b5f8061266a858585613034565b915091505b935093915050565b5f516020614aa85f395f51905f5280546040805163793d064960e11b815290515f939284926001600160a01b039091169163f27a0c92916004808201926020929091908290030181865afa1580156126d1573d5f5f3e3d5ffd5b505050506040513d601f19601f820116820180604052508101906126f59190614532565b90505f3060601b6bffffffffffffffffffffffff19168518835460405163b1c5f42760e01b81529192506001600160a01b03169063b1c5f42790612745908b908b908b905f9088906004016146ff565b602060405180830381865afa158015612760573d5f5f3e3d5ffd5b505050506040513d601f19601f820116820180604052508101906127849190614532565b5f8a815260018501602052604080822092909255845491516308f2a0bb60e41b81526001600160a01b0390921691638f2a0bb0916127cf918c918c918c919088908a9060040161474c565b5f604051808303815f87803b1580156127e6575f5ffd5b505af11580156127f8573d5f5f3e3d5ffd5b50505050612810824261280b91906145ea565b612d22565b9998505050505050505050565b634e487b715f52806020526024601cfd5b5f516020614aa85f395f51905f52805460405163e38335e560e01b81526001600160a01b039091169063e38335e5903490612889908990899089905f906bffffffffffffffffffffffff193060601b168b18906004016146ff565b5f604051808303818588803b1580156128a0575f5ffd5b505af11580156128b2573d5f5f3e3d5ffd5b5050505f9788525050600101602052505060408320929092555050565b5f8181525f516020614a085f395f51905f526020526040812080545f516020614ac85f395f51905f52919060ff600160f01b8204811691600160f81b90041681156129205750600795945050505050565b80156129325750600295945050505050565b5f61293c87610e2d565b9050805f0361296157604051636ad0607560e01b815260048101889052602401610ea9565b5f61296a611318565b65ffffffffffff16905080821061298857505f979650505050505050565b5f6129928961144b565b90508181106129aa5750600198975050505050505050565b6129b389613184565b15806129de57505f8981525f516020614a885f395f51905f5260205260409020805460019091015411155b156129f25750600398975050505050505050565b5f8981525f516020614a085f395f51905f52602052604090206001015465ffffffffffff165f03612a2c5750600498975050505050505050565b50600598975050505050505050565b5f5f516020614aa85f395f51905f5281612a57878787876131c9565b5f8181526001840160205260409020549091508015610ca357825460405163c4d252f560e01b8152600481018390526001600160a01b039091169063c4d252f5906024015f604051808303815f87803b158015612ab2575f5ffd5b505af1158015612ac4573d5f5f3e3d5ffd5b5050505f8381526001850160205260408120555050915050949350505050565b6001600160a01b03165f9081527f5ab42ced628888259c08ac98db1eb0cf702fc1501344311d8b100cd1bfe4bb006020526040902080546001810190915590565b5f610aad612b31613288565b8360405161190160f01b8152600281019290925260228201526042902090565b5f836001600160a01b03163b5f03612baf575f5f612b6f8585613291565b5090925090505f816003811115612b8857612b88613c6b565b148015612ba65750856001600160a01b0316826001600160a01b0316145b925050506110f9565b612bba8484846132da565b90506110f9565b5f8581525f516020614a885f395f51905f52602081815260408084206001600160a01b03891685526003810190925283205460ff1615612c1f576040516371c6af4960e01b81526001600160a01b0388166004820152602401610ea9565b6001600160a01b0387165f9081526003820160205260409020805460ff1916600117905560ff8616612c685784815f015f828254612c5d91906145ea565b90915550612cbe9050565b5f1960ff871601612c865784816001015f828254612c5d91906145ea565b60011960ff871601612ca55784816002015f828254612c5d91906145ea565b6040516303599be160e11b815260040160405180910390fd5b50929695505050505050565b80545f9081908190808203612ce8575f5f5f93509350935050610f9a565b5f612cf88661229e6001856146d8565b546001955065ffffffffffff81169450600160301b90046001600160d01b03169250610f9a915050565b5f65ffffffffffff821115612659576040516306dfcc6560e41b81526030600482015260248101839052604401610ea9565b81545f9081816005811115612db0575f612d6d846133b0565b612d7790856146d8565b5f8881526020902090915081015465ffffffffffff9081169087161015612da057809150612dae565b612dab8160016145ea565b92505b505b5f612dbd87878585613503565b90508015612dea57612dd48761229e6001846146d8565b54600160301b90046001600160d01b0316610ebe565b505f9695505050505050565b5f5f8451831180612e0657508284115b15612e1557505f90508061266f565b5f612e218560016145ea565b84118015612e49575061060f60f31b612e3d8787016020015190565b6001600160f01b031916145b90505f612e5982151560026147a3565b612e649060286145ea565b905080612e7187876146d8565b03612e92575f5f612e83898989613562565b909650945061266f9350505050565b5f5f93509350505061266f565b5f63ffffffff821115612659576040516306dfcc6560e41b81526020600482015260248101839052604401610ea9565b805115612ede57805160208201fd5b60405163d6bda27560e01b815260040160405180910390fd5b612eff613623565b6123da57604051631afcd79f60e31b815260040160405180910390fd5b612f24612ef7565b5f516020614a485f395f51905f527fa16a46d94261c7517cc8ff89f61c0ce93598e3c849801011dee649a6a557d102612f5d84826147fe565b5060038101612f6c83826147fe565b505f8082556001909101555050565b612f83612ef7565b5f516020614ac85f395f51905f52806123cd83826147fe565b612fa4612ef7565b612fad83611dc2565b612fb68261240f565b6123cd816124bc565b612fc7612ef7565b7f3ba4977254e415696610a40ebf2258dbfa0ec6a2ff64e84bfe715ff16977cc0080546001600160a01b0319166001600160a01b0392909216919091179055565b610abb612ef7565b6113d4612ef7565b5f805f1983850993909202808410938190039390930393915050565b82545f908190801561312a575f6130508761229e6001856146d8565b805490915065ffffffffffff80821691600160301b90046001600160d01b031690881682111561309357604051632520601d60e01b815260040160405180910390fd5b8765ffffffffffff168265ffffffffffff16036130cc57825465ffffffffffff16600160301b6001600160d01b0389160217835561311c565b6040805180820190915265ffffffffffff808a1682526001600160d01b03808a1660208085019182528d54600181018f555f8f81529190912094519151909216600160301b029216919091179101555b945085935061266f92505050565b50506040805180820190915265ffffffffffff80851682526001600160d01b0380851660208085019182528854600181018a555f8a815291822095519251909316600160301b02919093161792019190915590508161266f565b5f8181525f516020614a885f395f51905f52602081905260408220600281015460018201546131b391906145ea565b6131bf610a2086610e2d565b1115949350505050565b5f5f516020614ac85f395f51905f52816131e5878787876113dd565b9050613233816131f56007611943565b6131ff6006611943565b6132096002611943565b60016132166007826148b8565b6132219060026149ac565b61322b91906146d8565b181818611965565b505f8181526001830160205260409081902080546001600160f81b0316600160f81b179055517f789cf55be980739dad1d0699b93b58e806b51c9d96619bfa8fe0a28abaa7b30c90610e1b9083815260200190565b5f610a4261363c565b5f5f5f83516041036132c8576020840151604085015160608601515f1a6132ba888285856136af565b9550955095505050506132d3565b505081515f91506002905b9250925092565b5f5f5f856001600160a01b031685856040516024016132fa9291906149ba565b60408051601f198184030181529181526020820180516001600160e01b0316630b135d3f60e11b1790525161332f91906149d2565b5f60405180830381855afa9150503d805f8114613367576040519150601f19603f3d011682016040523d82523d5f602084013e61336c565b606091505b509150915081801561338057506020815110155b801561115757508051630b135d3f60e11b906133a59083016020908101908401614532565b149695505050505050565b5f600182116133bd575090565b816001600160801b82106133d65760809190911c9060401b5b600160401b82106133ec5760409190911c9060201b5b64010000000082106134035760209190911c9060101b5b6201000082106134185760109190911c9060081b5b610100821061342c5760089190911c9060041b5b6010821061343f5760049190911c9060021b5b6004821061344b5760011b5b600302600190811c90818581613463576134636146eb565b048201901c9050600181858161347b5761347b6146eb565b048201901c90506001818581613493576134936146eb565b048201901c905060018185816134ab576134ab6146eb565b048201901c905060018185816134c3576134c36146eb565b048201901c905060018185816134db576134db6146eb565b048201901c90506134fa8185816134f4576134f46146eb565b04821190565b90039392505050565b5f5b8183101561355a575f6135188484613777565b5f8781526020902090915065ffffffffffff86169082015465ffffffffffff16111561354657809250613554565b6135518160016145ea565b93505b50613505565b509392505050565b5f8084816135718660016145ea565b85118015613599575061060f60f31b61358d8388016020015190565b6001600160f01b031916145b90505f6135a982151560026147a3565b90505f806135b7838a6145ea565b90505b87811015613612575f6135d86135d38784016020015190565b613791565b9050600f8160ff1611156135f7575f5f9750975050505050505061266f565b6136026010846147a3565b60ff9091160191506001016135ba565b506001999098509650505050505050565b5f61362c61235a565b54600160401b900460ff16919050565b5f7f8b73c3c69bb8fe3d512ecc4cf759cc79239f7b179b0ffacaa9a75d522b39400f613666613809565b61366e613871565b60408051602081019490945283019190915260608201524660808201523060a082015260c00160405160208183030381529060405280519060200120905090565b5f80807f7fffffffffffffffffffffffffffffff5d576e7357a4501ddfe92f46681b20a08411156136e857505f9150600390508261376d565b604080515f808252602082018084528a905260ff891692820192909252606081018790526080810186905260019060a0016020604051602081039080840390855afa158015613739573d5f5f3e3d5ffd5b5050604051601f1901519150506001600160a01b03811661376457505f92506001915082905061376d565b92505f91508190505b9450945094915050565b5f61378560028484186149e8565b6110f9908484166145ea565b5f60f882901c602f811180156137aa5750603a8160ff16105b156137b857602f1901610aad565b60608160ff161180156137ce575060678160ff16105b156137dc5760561901610aad565b60408160ff161180156137f2575060478160ff16105b156138005760361901610aad565b5060ff92915050565b5f5f516020614a485f395f51905f5281613821612119565b80519091501561383957805160209091012092915050565b81548015613848579392505050565b7fc5d2460186f7233c927e7db2dcc703c0e500b653ca82273b7bfad8045d85a470935050505090565b5f5f516020614a485f395f51905f5281613889612157565b8051909150156138a157805160209091012092915050565b60018201548015613848579392505050565b5f602082840312156138c3575f5ffd5b81356001600160e01b0319811681146110f9575f5ffd5b5f602082840312156138ea575f5ffd5b5035919050565b5f81518084528060208401602086015e5f602082860101526020601f19601f83011685010191505092915050565b602081525f6110f960208301846138f1565b6001600160a01b0381168114610ac4575f5ffd5b634e487b7160e01b5f52604160045260245ffd5b604051601f8201601f191681016001600160401b038111828210171561398157613981613945565b604052919050565b5f6001600160401b038211156139a1576139a1613945565b50601f01601f191660200190565b5f6139c16139bc84613989565b613959565b90508281528383830111156139d4575f5ffd5b828260208301375f602084830101529392505050565b5f82601f8301126139f9575f5ffd5b6110f9838335602085016139af565b5f5f5f5f60808587031215613a1b575f5ffd5b8435613a2681613931565b93506020850135613a3681613931565b92506040850135915060608501356001600160401b03811115613a57575f5ffd5b613a63878288016139ea565b91505092959194509250565b5f6001600160401b03821115613a8757613a87613945565b5060051b60200190565b5f82601f830112613aa0575f5ffd5b8135613aae6139bc82613a6f565b8082825260208201915060208360051b860101925085831115613acf575f5ffd5b602085015b83811015613af5578035613ae781613931565b835260209283019201613ad4565b5095945050505050565b5f82601f830112613b0e575f5ffd5b8135613b1c6139bc82613a6f565b8082825260208201915060208360051b860101925085831115613b3d575f5ffd5b602085015b83811015613af5578035835260209283019201613b42565b5f82601f830112613b69575f5ffd5b8135613b776139bc82613a6f565b8082825260208201915060208360051b860101925085831115613b98575f5ffd5b602085015b83811015613af55780356001600160401b03811115613bba575f5ffd5b613bc9886020838a01016139ea565b84525060209283019201613b9d565b5f5f5f5f60808587031215613beb575f5ffd5b84356001600160401b03811115613c00575f5ffd5b613c0c87828801613a91565b94505060208501356001600160401b03811115613c27575f5ffd5b613c3387828801613aff565b93505060408501356001600160401b03811115613c4e575f5ffd5b613c5a87828801613b5a565b949793965093946060013593505050565b634e487b7160e01b5f52602160045260245ffd5b60088110613c9b57634e487b7160e01b5f52602160045260245ffd5b9052565b60208101610aad8284613c7f565b5f5f60408385031215613cbe575f5ffd5b823591506020830135613cd081613931565b809150509250929050565b803560ff81168114610f6b575f5ffd5b5f5f60408385031215613cfc575f5ffd5b82359150613d0c60208401613cdb565b90509250929050565b5f5f83601f840112613d25575f5ffd5b5081356001600160401b03811115613d3b575f5ffd5b602083019150836020828501011115613d52575f5ffd5b9250929050565b5f5f5f5f5f5f5f60c0888a031215613d6f575f5ffd5b87359650613d7f60208901613cdb565b95506040880135613d8f81613931565b945060608801356001600160401b03811115613da9575f5ffd5b613db58a828b01613d15565b90955093505060808801356001600160401b03811115613dd3575f5ffd5b613ddf8a828b016139ea565b92505060a08801356001600160401b03811115613dfa575f5ffd5b613e068a828b016139ea565b91505092959891949750929550565b5f5f5f5f5f60808688031215613e29575f5ffd5b85359450613e3960208701613cdb565b935060408601356001600160401b03811115613e53575f5ffd5b613e5f88828901613d15565b90945092505060608601356001600160401b03811115613e7d575f5ffd5b613e89888289016139ea565b9150509295509295909350565b65ffffffffffff81168114610ac4575f5ffd5b5f60208284031215613eb9575f5ffd5b81356110f981613e96565b5f5f5f5f60608587031215613ed7575f5ffd5b84359350613ee760208601613cdb565b925060408501356001600160401b03811115613f01575f5ffd5b613f0d87828801613d15565b95989497509550505050565b5f5f5f5f60808587031215613f2c575f5ffd5b84356001600160401b03811115613f41575f5ffd5b613f4d87828801613a91565b94505060208501356001600160401b03811115613f68575f5ffd5b613f7487828801613aff565b93505060408501356001600160401b03811115613f8f575f5ffd5b613f9b87828801613b5a565b92505060608501356001600160401b03811115613fb6575f5ffd5b8501601f81018713613fc6575f5ffd5b613a63878235602084016139af565b5f60208284031215613fe5575f5ffd5b81356110f981613931565b5f8151808452602084019350602083015f5b82811015614020578151865260209586019590910190600101614002565b5093949350505050565b60ff60f81b8816815260e060208201525f61404860e08301896138f1565b828103604084015261405a81896138f1565b606084018890526001600160a01b038716608085015260a0840186905283810360c0850152905061408b8185613ff0565b9a9950505050505050505050565b5f5f5f5f608085870312156140ac575f5ffd5b843593506140bc60208601613cdb565b925060408501356140cc81613931565b915060608501356001600160401b03811115613a57575f5ffd5b5f5f5f606084860312156140f8575f5ffd5b833561410381613931565b92506020840135915060408401356001600160401b03811115614124575f5ffd5b614130868287016139ea565b9150509250925092565b5f5f5f5f5f60a0868803121561414e575f5ffd5b853561415981613931565b9450602086013561416981613931565b935060408601356001600160401b03811115614183575f5ffd5b61418f88828901613aff565b93505060608601356001600160401b038111156141aa575f5ffd5b6141b688828901613aff565b92505060808601356001600160401b03811115613e7d575f5ffd5b5f5f5f5f606085870312156141e4575f5ffd5b84356141ef81613931565b93506020850135925060408501356001600160401b03811115613f01575f5ffd5b803563ffffffff81168114610f6b575f5ffd5b5f5f5f5f5f60a08688031215614237575f5ffd5b853561424281613931565b9450602086013561425281613931565b9350604086013561426281613e96565b925061427060608701614210565b949793965091946080013592915050565b5f60208284031215614291575f5ffd5b6110f982614210565b5f5f604083850312156142ab575f5ffd5b82356142b681613931565b946020939093013593505050565b5f5f5f5f5f60a086880312156142d8575f5ffd5b85356142e381613931565b945060208601356142f381613931565b9350604086013592506060860135915060808601356001600160401b03811115613e7d575f5ffd5b600181811c9082168061432f57607f821691505b60208210810361434d57634e487b7160e01b5f52602260045260245ffd5b50919050565b634e487b7160e01b5f52603260045260245ffd5b5f60208284031215614377575f5ffd5b81516001600160401b0381111561438c575f5ffd5b8201601f8101841361439c575f5ffd5b80516143aa6139bc82613989565b8181528560208385010111156143be575f5ffd5b8160208401602083015e5f91810160200191909152949350505050565b634e487b7160e01b5f52601160045260245ffd5b65ffffffffffff8281168282160390811115610aad57610aad6143db565b5f6020828403121561441d575f5ffd5b81516110f981613e96565b65ffffffffffff8181168382160190811115610aad57610aad6143db565b818382375f9101908152919050565b5f8151808452602084019350602083015f5b828110156140205781516001600160a01b0316865260209586019590910190600101614467565b5f82825180855260208501945060208160051b830101602085015f5b838110156144dc57601f198584030188526144c68383516138f1565b60209889019890935091909101906001016144aa565b50909695505050505050565b608081525f6144fa6080830187614455565b828103602084015261450c8187613ff0565b90508281036040840152614520818661448e565b91505082606083015295945050505050565b5f60208284031215614542575f5ffd5b5051919050565b8381526060810161455d6020830185613c7f565b826040830152949350505050565b5f6020828403121561457b575f5ffd5b815180151581146110f9575f5ffd5b84815260ff84166020820152826040820152608060608201525f61115760808301846138f1565b85815260ff8516602082015283604082015260a060608201525f6145d860a08301856138f1565b828103608084015261107981856138f1565b80820180821115610aad57610aad6143db565b8981526001600160a01b0389166020820152610120604082018190525f906146279083018a614455565b8281036060840152614639818a613ff0565b9050828103608084015280885180835260208301915060208160051b84010160208b015f5b8381101561469057601f1986840301855261467a8383516138f1565b602095860195909350919091019060010161465e565b505085810360a08701526146a4818b61448e565b93505050508560c08401528460e08401528281036101008401526146c881856138f1565b9c9b505050505050505050505050565b81810381811115610aad57610aad6143db565b634e487b7160e01b5f52601260045260245ffd5b60a081525f61471160a0830188614455565b82810360208401526147238188613ff0565b90508281036040840152614737818761448e565b60608401959095525050608001529392505050565b60c081525f61475e60c0830189614455565b82810360208401526147708189613ff0565b90508281036040840152614784818861448e565b60608401969096525050608081019290925260a0909101529392505050565b8082028115828204841417610aad57610aad6143db565b601f8211156123cd57805f5260205f20601f840160051c810160208510156147df5750805b601f840160051c820191505b81811015611a1e575f81556001016147eb565b81516001600160401b0381111561481757614817613945565b61482b81614825845461431b565b846147ba565b6020601f82116001811461485d575f83156148465750848201515b5f19600385901b1c1916600184901b178455611a1e565b5f84815260208120601f198516915b8281101561488c578785015182556020948501946001909201910161486c565b50848210156148a957868401515f19600387901b60f8161c191681555b50505050600190811b01905550565b60ff8181168382160190811115610aad57610aad6143db565b6001815b600184111561266f578085048111156148f0576148f06143db565b60018416156148fe57908102905b60019390931c9280026148d5565b5f8261491a57506001610aad565b8161492657505f610aad565b816001811461493c576002811461494657614962565b6001915050610aad565b60ff841115614957576149576143db565b50506001821b610aad565b5060208310610133831016604e8410600b8410161715614985575081810a610aad565b6149915f1984846148d1565b805f19048211156149a4576149a46143db565b029392505050565b5f6110f960ff84168361490c565b828152604060208201525f610fc060408301846138f1565b5f82518060208501845e5f920191825250919050565b5f82614a0257634e487b7160e01b5f52601260045260245ffd5b50049056fe7c712897014dbe49c045ef1299aa2d5f9e67e48eea4403efa21f1e0f3ac0cb0100d7616c8fe29c6c2fbe1d0c5bc8f2faa4c35b43746e70b24b4d532752affd01a16a46d94261c7517cc8ff89f61c0ce93598e3c849801011dee649a6a557d10000d7616c8fe29c6c2fbe1d0c5bc8f2faa4c35b43746e70b24b4d532752affd00a1cefa0f43667ef127a258e673c94202a79b656e62899531c4376d87a7f398000d5829787b8befdbc6044ef7457d8a95c2a04bc99235349f1a212c063e59d4007c712897014dbe49c045ef1299aa2d5f9e67e48eea4403efa21f1e0f3ac0cb00a264697066735822122039bfe8b27a2835c53af61cf3e04d7ae98183ac04a78a79326b870261c05e04f464736f6c634300081c0033",
  "linkReferences": {},
  "deployedLinkReferences": {}
}