{
  "_format": "hh-sol-artifact-1",
  "contractName": "Marketplace",
  "sourceName": "contracts/MarketPlace.sol",
  "abi": [
    {
      "inputs": [
        {
          "internalType": "address",
          "name": "_fansToken",
          "type": "address"
        },
        {
          "internalType": "address",
          "name": "_daoTreasury",
          "type": "address"
        },
        {
          "internalType": "address",
          "name": "_governor",
          "type": "address"
        }
      ],
      "stateMutability": "nonpayable",
      "type": "constructor"
    },
    {
      "inputs": [
        {
          "internalType": "address",
          "name": "sender",
          "type": "address"
        },
        {
          "internalType": "uint256",
          "name": "tokenId",
          "type": "uint256"
        },
        {
          "internalType": "address",
          "name": "owner",
          "type": "address"
        }
      ],
      "name": "ERC721IncorrectOwner",
      "type": "error"
    },
    {
      "inputs": [
        {
          "internalType": "address",
          "name": "operator",
          "type": "address"
        },
        {
          "internalType": "uint256",
          "name": "tokenId",
          "type": "uint256"
        }
      ],
      "name": "ERC721InsufficientApproval",
      "type": "error"
    },
    {
      "inputs": [
        {
          "internalType": "address",
          "name": "approver",
          "type": "address"
        }
      ],
      "name": "ERC721InvalidApprover",
      "type": "error"
    },
    {
      "inputs": [
        {
          "internalType": "address",
          "name": "operator",
          "type": "address"
        }
      ],
      "name": "ERC721InvalidOperator",
      "type": "error"
    },
    {
      "inputs": [
        {
          "internalType": "address",
          "name": "owner",
          "type": "address"
        }
      ],
      "name": "ERC721InvalidOwner",
      "type": "error"
    },
    {
      "inputs": [
        {
          "internalType": "address",
          "name": "receiver",
          "type": "address"
        }
      ],
      "name": "ERC721InvalidReceiver",
      "type": "error"
    },
    {
      "inputs": [
        {
          "internalType": "address",
          "name": "sender",
          "type": "address"
        }
      ],
      "name": "ERC721InvalidSender",
      "type": "error"
    },
    {
      "inputs": [
        {
          "internalType": "uint256",
          "name": "tokenId",
          "type": "uint256"
        }
      ],
      "name": "ERC721NonexistentToken",
      "type": "error"
    },
    {
      "inputs": [
        {
          "internalType": "address",
          "name": "owner",
          "type": "address"
        }
      ],
      "name": "OwnableInvalidOwner",
      "type": "error"
    },
    {
      "inputs": [
        {
          "internalType": "address",
          "name": "account",
          "type": "address"
        }
      ],
      "name": "OwnableUnauthorizedAccount",
      "type": "error"
    },
    {
      "anonymous": false,
      "inputs": [
        {
          "indexed": true,
          "internalType": "address",
          "name": "owner",
          "type": "address"
        },
        {
          "indexed": true,
          "internalType": "address",
          "name": "approved",
          "type": "address"
        },
        {
          "indexed": true,
          "internalType": "uint256",
          "name": "tokenId",
          "type": "uint256"
        }
      ],
      "name": "Approval",
      "type": "event"
    },
    {
      "anonymous": false,
      "inputs": [
        {
          "indexed": true,
          "internalType": "address",
          "name": "owner",
          "type": "address"
        },
        {
          "indexed": true,
          "internalType": "address",
          "name": "operator",
          "type": "address"
        },
        {
          "indexed": false,
          "internalType": "bool",
          "name": "approved",
          "type": "bool"
        }
      ],
      "name": "ApprovalForAll",
      "type": "event"
    },
    {
      "anonymous": false,
      "inputs": [
        {
          "indexed": false,
          "internalType": "uint256",
          "name": "_fromTokenId",
          "type": "uint256"
        },
        {
          "indexed": false,
          "internalType": "uint256",
          "name": "_toTokenId",
          "type": "uint256"
        }
      ],
      "name": "BatchMetadataUpdate",
      "type": "event"
    },
    {
      "anonymous": false,
      "inputs": [
        {
          "indexed": false,
          "internalType": "uint256",
          "name": "_tokenId",
          "type": "uint256"
        }
      ],
      "name": "MetadataUpdate",
      "type": "event"
    },
    {
      "anonymous": false,
      "inputs": [
        {
          "indexed": true,
          "internalType": "address",
          "name": "previousOwner",
          "type": "address"
        },
        {
          "indexed": true,
          "internalType": "address",
          "name": "newOwner",
          "type": "address"
        }
      ],
      "name": "OwnershipTransferred",
      "type": "event"
    },
    {
      "anonymous": false,
      "inputs": [
        {
          "indexed": true,
          "internalType": "uint256",
          "name": "id",
          "type": "uint256"
        },
        {
          "indexed": true,
          "internalType": "address",
          "name": "buyer",
          "type": "address"
        },
        {
          "indexed": false,
          "internalType": "uint256",
          "name": "price",
          "type": "uint256"
        },
        {
          "indexed": false,
          "internalType": "uint256",
          "name": "royalty",
          "type": "uint256"
        }
      ],
      "name": "ReportBought",
      "type": "event"
    },
    {
      "anonymous": false,
      "inputs": [
        {
          "indexed": true,
          "internalType": "uint256",
          "name": "id",
          "type": "uint256"
        },
        {
          "indexed": false,
          "internalType": "uint256",
          "name": "price",
          "type": "uint256"
        }
      ],
      "name": "ReportListed",
      "type": "event"
    },
    {
      "anonymous": false,
      "inputs": [
        {
          "indexed": true,
          "internalType": "uint256",
          "name": "id",
          "type": "uint256"
        },
        {
          "indexed": true,
          "internalType": "address",
          "name": "creator",
          "type": "address"
        },
        {
          "indexed": false,
          "internalType": "string",
          "name": "ipfsHash",
          "type": "string"
        },
        {
          "indexed": false,
          "internalType": "uint256",
          "name": "price",
          "type": "uint256"
        }
      ],
      "name": "ReportMinted",
      "type": "event"
    },
    {
      "anonymous": false,
      "inputs": [
        {
          "indexed": true,
          "internalType": "address",
          "name": "from",
          "type": "address"
        },
        {
          "indexed": true,
          "internalType": "address",
          "name": "to",
          "type": "address"
        },
        {
          "indexed": true,
          "internalType": "uint256",
          "name": "tokenId",
          "type": "uint256"
        }
      ],
      "name": "Transfer",
      "type": "event"
    },
    {
      "inputs": [
        {
          "internalType": "address",
          "name": "to",
          "type": "address"
        },
        {
          "internalType": "uint256",
          "name": "tokenId",
          "type": "uint256"
        }
      ],
      "name": "approve",
      "outputs": [],
      "stateMutability": "nonpayable",
      "type": "function"
    },
    {
      "inputs": [
        {
          "internalType": "address",
          "name": "owner",
          "type": "address"
        }
      ],
      "name": "balanceOf",
      "outputs": [
        {
          "internalType": "uint256",
          "name": "",
          "type": "uint256"
        }
      ],
      "stateMutability": "view",
      "type": "function"
    },
    {
      "inputs": [
        {
          "internalType": "uint256",
          "name": "reportId",
          "type": "uint256"
        }
      ],
      "name": "buyReport",
      "outputs": [],
      "stateMutability": "nonpayable",
      "type": "function"
    },
    {
      "inputs": [],
      "name": "daoTreasury",
      "outputs": [
        {
          "internalType": "address",
          "name": "",
          "type": "address"
        }
      ],
      "stateMutability": "view",
      "type": "function"
    },
    {
      "inputs": [],
      "name": "fansToken",
      "outputs": [
        {
          "internalType": "contract IERC20",
          "name": "",
          "type": "address"
        }
      ],
      "stateMutability": "view",
      "type": "function"
    },
    {
      "inputs": [
        {
          "internalType": "uint256",
          "name": "tokenId",
          "type": "uint256"
        }
      ],
      "name": "getApproved",
      "outputs": [
        {
          "internalType": "address",
          "name": "",
          "type": "address"
        }
      ],
      "stateMutability": "view",
      "type": "function"
    },
    {
      "inputs": [
        {
          "internalType": "uint256",
          "name": "reportId",
          "type": "uint256"
        }
      ],
      "name": "getReport",
      "outputs": [
        {
          "components": [
            {
              "internalType": "uint256",
              "name": "id",
              "type": "uint256"
            },
            {
              "internalType": "uint256",
              "name": "price",
              "type": "uint256"
            },
            {
              "internalType": "address",
              "name": "seller",
              "type": "address"
            },
            {
              "internalType": "bool",
              "name": "listed",
              "type": "bool"
            }
          ],
          "internalType": "struct Marketplace.ReportItem",
          "name": "",
          "type": "tuple"
        }
      ],
      "stateMutability": "view",
      "type": "function"
    },
    {
      "inputs": [],
      "name": "governor",
      "outputs": [
        {
          "internalType": "address",
          "name": "",
          "type": "address"
        }
      ],
      "stateMutability": "view",
      "type": "function"
    },
    {
      "inputs": [
        {
          "internalType": "address",
          "name": "owner",
          "type": "address"
        },
        {
          "internalType": "address",
          "name": "operator",
          "type": "address"
        }
      ],
      "name": "isApprovedForAll",
      "outputs": [
        {
          "internalType": "bool",
          "name": "",
          "type": "bool"
        }
      ],
      "stateMutability": "view",
      "type": "function"
    },
    {
      "inputs": [
        {
          "internalType": "uint256",
          "name": "reportId",
          "type": "uint256"
        },
        {
          "internalType": "uint256",
          "name": "price",
          "type": "uint256"
        }
      ],
      "name": "listReport",
      "outputs": [],
      "stateMutability": "nonpayable",
      "type": "function"
    },
    {
      "inputs": [
        {
          "internalType": "address",
          "name": "creator",
          "type": "address"
        },
        {
          "internalType": "string",
          "name": "ipfsHash",
          "type": "string"
        },
        {
          "internalType": "uint256",
          "name": "price",
          "type": "uint256"
        }
      ],
      "name": "mintReport",
      "outputs": [
        {
          "internalType": "uint256",
          "name": "",
          "type": "uint256"
        }
      ],
      "stateMutability": "nonpayable",
      "type": "function"
    },
    {
      "inputs": [],
      "name": "name",
      "outputs": [
        {
          "internalType": "string",
          "name": "",
          "type": "string"
        }
      ],
      "stateMutability": "view",
      "type": "function"
    },
    {
      "inputs": [],
      "name": "nextReportId",
      "outputs": [
        {
          "internalType": "uint256",
          "name": "",
          "type": "uint256"
        }
      ],
      "stateMutability": "view",
      "type": "function"
    },
    {
      "inputs": [],
      "name": "owner",
      "outputs": [
        {
          "internalType": "address",
          "name": "",
          "type": "address"
        }
      ],
      "stateMutability": "view",
      "type": "function"
    },
    {
      "inputs": [
        {
          "internalType": "uint256",
          "name": "tokenId",
          "type": "uint256"
        }
      ],
      "name": "ownerOf",
      "outputs": [
        {
          "internalType": "address",
          "name": "",
          "type": "address"
        }
      ],
      "stateMutability": "view",
      "type": "function"
    },
    {
      "inputs": [],
      "name": "renounceOwnership",
      "outputs": [],
      "stateMutability": "nonpayable",
      "type": "function"
    },
    {
      "inputs": [
        {
          "internalType": "uint256",
          "name": "",
          "type": "uint256"
        }
      ],
      "name": "reports",
      "outputs": [
        {
          "internalType": "uint256",
          "name": "id",
          "type": "uint256"
        },
        {
          "internalType": "uint256",
          "name": "price",
          "type": "uint256"
        },
        {
          "internalType": "address",
          "name": "seller",
          "type": "address"
        },
        {
          "internalType": "bool",
          "name": "listed",
          "type": "bool"
        }
      ],
      "stateMutability": "view",
      "type": "function"
    },
    {
      "inputs": [],
      "name": "royaltyPercent",
      "outputs": [
        {
          "internalType": "uint256",
          "name": "",
          "type": "uint256"
        }
      ],
      "stateMutability": "view",
      "type": "function"
    },
    {
      "inputs": [
        {
          "internalType": "address",
          "name": "from",
          "type": "address"
        },
        {
          "internalType": "address",
          "name": "to",
          "type": "address"
        },
        {
          "internalType": "uint256",
          "name": "tokenId",
          "type": "uint256"
        }
      ],
      "name": "safeTransferFrom",
      "outputs": [],
      "stateMutability": "nonpayable",
      "type": "function"
    },
    {
      "inputs": [
        {
          "internalType": "address",
          "name": "from",
          "type": "address"
        },
        {
          "internalType": "address",
          "name": "to",
          "type": "address"
        },
        {
          "internalType": "uint256",
          "name": "tokenId",
          "type": "uint256"
        },
        {
          "internalType": "bytes",
          "name": "data",
          "type": "bytes"
        }
      ],
      "name": "safeTransferFrom",
      "outputs": [],
      "stateMutability": "nonpayable",
      "type": "function"
    },
    {
      "inputs": [
        {
          "internalType": "address",
          "name": "operator",
          "type": "address"
        },
        {
          "internalType": "bool",
          "name": "approved",
          "type": "bool"
        }
      ],
      "name": "setApprovalForAll",
      "outputs": [],
      "stateMutability": "nonpayable",
      "type": "function"
    },
    {
      "inputs": [
        {
          "internalType": "address",
          "name": "_daoTreasury",
          "type": "address"
        }
      ],
      "name": "setDaoTreasury",
      "outputs": [],
      "stateMutability": "nonpayable",
      "type": "function"
    },
    {
      "inputs": [
        {
          "internalType": "address",
          "name": "_governor",
          "type": "address"
        }
      ],
      "name": "setGovernor",
      "outputs": [],
      "stateMutability": "nonpayable",
      "type": "function"
    },
    {
      "inputs": [
        {
          "internalType": "uint256",
          "name": "_percent",
          "type": "uint256"
        }
      ],
      "name": "setRoyaltyPercent",
      "outputs": [],
      "stateMutability": "nonpayable",
      "type": "function"
    },
    {
      "inputs": [
        {
          "internalType": "bytes4",
          "name": "interfaceId",
          "type": "bytes4"
        }
      ],
      "name": "supportsInterface",
      "outputs": [
        {
          "internalType": "bool",
          "name": "",
          "type": "bool"
        }
      ],
      "stateMutability": "view",
      "type": "function"
    },
    {
      "inputs": [],
      "name": "symbol",
      "outputs": [
        {
          "internalType": "string",
          "name": "",
          "type": "string"
        }
      ],
      "stateMutability": "view",
      "type": "function"
    },
    {
      "inputs": [
        {
          "internalType": "uint256",
          "name": "tokenId",
          "type": "uint256"
        }
      ],
      "name": "tokenURI",
      "outputs": [
        {
          "internalType": "string",
          "name": "",
          "type": "string"
        }
      ],
      "stateMutability": "view",
      "type": "function"
    },
    {
      "inputs": [
        {
          "internalType": "address",
          "name": "from",
          "type": "address"
        },
        {
          "internalType": "address",
          "name": "to",
          "type": "address"
        },
        {
          "internalType": "uint256",
          "name": "tokenId",
          "type": "uint256"
        }
      ],
      "name": "transferFrom",
      "outputs": [],
      "stateMutability": "nonpayable",
      "type": "function"
    },
    {
      "inputs": [
        {
          "internalType": "address",
          "name": "newOwner",
          "type": "address"
        }
      ],
      "name": "transferOwnership",
      "outputs": [],
      "stateMutability": "nonpayable",
      "type": "function"
    }
  ],
  "bytecode": "0x60806040526005600b55348015610014575f5ffd5b5060405161209538038061209583398101604081905261003391610189565b336040518060400160405280601381526020017f46616e416e616c79746963735265706f72747300000000000000000000000000815250604051806040016040528060038152602001622320a960e91b815250815f90816100949190610261565b5060016100a18282610261565b5050506001600160a01b0381166100d157604051631e4fbdf760e01b81525f600482015260240160405180910390fd5b6100da8161011d565b50600880546001600160a01b039485166001600160a01b0319918216179091556009805493851693821693909317909255600a805491909316911617905561031b565b600780546001600160a01b038381166001600160a01b0319831681179093556040519116919082907f8be0079c531659141344cd1fd0a4f28419497f9722a3daafe3b4186f6b6457e0905f90a35050565b80516001600160a01b0381168114610184575f5ffd5b919050565b5f5f5f6060848603121561019b575f5ffd5b6101a48461016e565b92506101b26020850161016e565b91506101c06040850161016e565b90509250925092565b634e487b7160e01b5f52604160045260245ffd5b600181811c908216806101f157607f821691505b60208210810361020f57634e487b7160e01b5f52602260045260245ffd5b50919050565b601f82111561025c57805f5260205f20601f840160051c8101602085101561023a5750805b601f840160051c820191505b81811015610259575f8155600101610246565b50505b505050565b81516001600160401b0381111561027a5761027a6101c9565b61028e8161028884546101dd565b84610215565b6020601f8211600181146102c0575f83156102a95750848201515b5f19600385901b1c1916600184901b178455610259565b5f84815260208120601f198516915b828110156102ef57878501518255602094850194600190920191016102cf565b508482101561030c57868401515f19600387901b60f8161c191681555b50505050600190811b01905550565b611d6d806103285f395ff3fe608060405234801561000f575f5ffd5b50600436106101c6575f3560e01c8063715018a6116100fe578063a22cb4651161009e578063c942adf71161006e578063c942adf714610468578063e985e9c5146104dc578063f2fde38b146104ef578063fe74e87a14610502575f5ffd5b8063a22cb4651461041c578063b88d4fde1461042f578063c42cf53514610442578063c87b56dd14610455575f5ffd5b806395d89b41116100d957806395d89b41146103e55780639a4fc640146103ed5780639f67756d14610400578063a124df5d14610409575f5ffd5b8063715018a6146103b957806379022a9f146103c15780638da5cb5b146103d4575f5ffd5b80633c30880d116101695780634e7f9b19116101445780634e7f9b19146102c75780636352211e1461038a5780636e79bbf61461039d57806370a08231146103a6575f5ffd5b80633c30880d1461028057806342842e0e1461029357806342fa4038146102a6575f5ffd5b8063095ea7b3116101a4578063095ea7b3146102325780630c340a241461024757806321e60bd31461025a57806323b872dd1461026d575f5ffd5b806301ffc9a7146101ca57806306fdde03146101f2578063081812fc14610207575b5f5ffd5b6101dd6101d83660046117c9565b610515565b60405190151581526020015b60405180910390f35b6101fa61053f565b6040516101e99190611812565b61021a610215366004611824565b6105ce565b6040516001600160a01b0390911681526020016101e9565b610245610240366004611856565b6105f5565b005b600a5461021a906001600160a01b031681565b610245610268366004611824565b610604565b61024561027b36600461187e565b610901565b61024561028e3660046118b8565b61098a565b6102456102a136600461187e565b610a87565b6102b96102b4366004611963565b610aa6565b6040519081526020016101e9565b61034c6102d5366004611824565b604080516080810182525f808252602082018190529181018290526060810191909152505f908152600d6020908152604091829020825160808101845281548152600182015492810192909252600201546001600160a01b03811692820192909252600160a01b90910460ff161515606082015290565b6040516101e9919081518152602080830151908201526040808301516001600160a01b03169082015260609182015115159181019190915260800190565b61021a610398366004611824565b610c3f565b6102b9600c5481565b6102b96103b43660046119ca565b610c49565b610245610c8e565b60095461021a906001600160a01b031681565b6007546001600160a01b031661021a565b6101fa610ca1565b6102456103fb366004611824565b610cb0565b6102b9600b5481565b6102456104173660046119ca565b610d00565b61024561042a3660046119f0565b610d2a565b61024561043d366004611a25565b610d35565b6102456104503660046119ca565b610d4d565b6101fa610463366004611824565b610d77565b6104ab610476366004611824565b600d6020525f90815260409020805460018201546002909201549091906001600160a01b03811690600160a01b900460ff1684565b6040516101e9949392919093845260208401929092526001600160a01b031660408301521515606082015260800190565b6101dd6104ea366004611a9c565b610e82565b6102456104fd3660046119ca565b610eaf565b60085461021a906001600160a01b031681565b5f6001600160e01b03198216632483248360e11b1480610539575061053982610eec565b92915050565b60605f805461054d90611acd565b80601f016020809104026020016040519081016040528092919081815260200182805461057990611acd565b80156105c45780601f1061059b576101008083540402835291602001916105c4565b820191905f5260205f20905b8154815290600101906020018083116105a757829003601f168201915b5050505050905090565b5f6105d882610f3b565b505f828152600460205260409020546001600160a01b0316610539565b610600828233610f73565b5050565b5f818152600d602052604090206002810154600160a01b900460ff166106675760405162461bcd60e51b81526020600482015260136024820152724e6f74206c697374656420666f722073616c6560681b60448201526064015b60405180910390fd5b60028101546001600160a01b031633036106c35760405162461bcd60e51b815260206004820152601c60248201527f53656c6c65722063616e6e6f7420627579206f776e207265706f727400000000604482015260640161065e565b5f6064600b5483600101546106d89190611b19565b6106e29190611b30565b90505f8183600101546106f59190611b4f565b60085460028501546040516323b872dd60e01b81523360048201526001600160a01b0391821660248201526044810184905292935016906323b872dd906064016020604051808303815f875af1158015610751573d5f5f3e3d5ffd5b505050506040513d601f19601f820116820180604052508101906107759190611b62565b6107c15760405162461bcd60e51b815260206004820152601860248201527f5061796d656e7420746f2073656c6c6572206661696c65640000000000000000604482015260640161065e565b6008546009546040516323b872dd60e01b81523360048201526001600160a01b039182166024820152604481018590529116906323b872dd906064016020604051808303815f875af1158015610819573d5f5f3e3d5ffd5b505050506040513d601f19601f8201168201806040525081019061083d9190611b62565b6108825760405162461bcd60e51b8152602060048201526016602482015275149bde585b1d1e481c185e5b595b9d0819985a5b195960521b604482015260640161065e565b600283015461089b906001600160a01b03163386610f80565b6002830180546001600160a81b0319163360ff60a01b198116919091179091556001840154604080519182526020820185905286917f25a87c091c57941e314979c1017cec361161377c14f96b2ab0a78bb2d22eaa58910160405180910390a350505050565b6001600160a01b03821661092a57604051633250574960e11b81525f600482015260240161065e565b5f61093683833361102d565b9050836001600160a01b0316816001600160a01b031614610984576040516364283d7b60e01b81526001600160a01b038086166004830152602482018490528216604482015260640161065e565b50505050565b3361099483610c3f565b6001600160a01b0316146109d65760405162461bcd60e51b81526020600482015260096024820152682737ba1037bbb732b960b91b604482015260640161065e565b5f8111610a155760405162461bcd60e51b815260206004820152600d60248201526c496e76616c696420707269636560981b604482015260640161065e565b5f828152600d602090815260409182902060018101849055600281018054600160a01b6001600160a81b03199091163360ff60a01b191617179055915183815284917fc181442b546b244a65345503fa4567704c9d4a584cb4ebabb648325bfba3f168910160405180910390a2505050565b610aa183838360405180602001604052805f815250610d35565b505050565b600a545f906001600160a01b0316331480610acb57506009546001600160a01b031633145b610b175760405162461bcd60e51b815260206004820152601f60248201527f4f6e6c7920476f7665726e6f722f54696d656c6f636b2063616e206d696e7400604482015260640161065e565b5f8211610b5a5760405162461bcd60e51b815260206004820152601160248201527005072696365206d757374206265203e203607c1b604482015260640161065e565b600c8054905f610b6983611b7d565b9091555050600c54610b7b858261111f565b610b858185611180565b6040805160808101825282815260208082018681526001600160a01b03808a168486018181526001606087018181525f8a8152600d909752958890209651875593519386019390935591516002909401805493511515600160a01b026001600160a81b0319909416949091169390931791909117909155905182907fa702f172f27215510cabeb862cfaf0d8a311c3a4b2f14e72122ee3997bbecbca90610c2f9088908890611b95565b60405180910390a3949350505050565b5f61053982610f3b565b5f6001600160a01b038216610c73576040516322718ad960e21b81525f600482015260240161065e565b506001600160a01b03165f9081526003602052604090205490565b610c966111cf565b610c9f5f6111fc565b565b60606001805461054d90611acd565b610cb86111cf565b6014811115610cfb5760405162461bcd60e51b815260206004820152600f60248201526e4d61782032302520726f79616c747960881b604482015260640161065e565b600b55565b610d086111cf565b600980546001600160a01b0319166001600160a01b0392909216919091179055565b61060033838361124d565b610d40848484610901565b61098433858585856112eb565b610d556111cf565b600a80546001600160a01b0319166001600160a01b0392909216919091179055565b6060610d8282610f3b565b505f8281526006602052604081208054610d9b90611acd565b80601f0160208091040260200160405190810160405280929190818152602001828054610dc790611acd565b8015610e125780601f10610de957610100808354040283529160200191610e12565b820191905f5260205f20905b815481529060010190602001808311610df557829003601f168201915b505050505090505f610e2e60408051602081019091525f815290565b905080515f03610e3f575092915050565b815115610e71578082604051602001610e59929190611bcd565b60405160208183030381529060405292505050919050565b610e7a84611413565b949350505050565b6001600160a01b039182165f90815260056020908152604080832093909416825291909152205460ff1690565b610eb76111cf565b6001600160a01b038116610ee057604051631e4fbdf760e01b81525f600482015260240161065e565b610ee9816111fc565b50565b5f6001600160e01b031982166380ac58cd60e01b1480610f1c57506001600160e01b03198216635b5e139f60e01b145b8061053957506301ffc9a760e01b6001600160e01b0319831614610539565b5f818152600260205260408120546001600160a01b03168061053957604051637e27328960e01b81526004810184905260240161065e565b610aa18383836001611484565b6001600160a01b038216610fa957604051633250574960e11b81525f600482015260240161065e565b5f610fb583835f61102d565b90506001600160a01b038116610fe157604051637e27328960e01b81526004810183905260240161065e565b836001600160a01b0316816001600160a01b031614610984576040516364283d7b60e01b81526001600160a01b038086166004830152602482018490528216604482015260640161065e565b5f828152600260205260408120546001600160a01b039081169083161561105957611059818486611588565b6001600160a01b03811615611093576110745f855f5f611484565b6001600160a01b0381165f90815260036020526040902080545f190190555b6001600160a01b038516156110c1576001600160a01b0385165f908152600360205260409020805460010190555b5f8481526002602052604080822080546001600160a01b0319166001600160a01b0389811691821790925591518793918516917fddf252ad1be2c89b69c2b068fc378daa952ba7f163c4a11628f55a4df523b3ef91a4949350505050565b6001600160a01b03821661114857604051633250574960e11b81525f600482015260240161065e565b5f61115483835f61102d565b90506001600160a01b03811615610aa1576040516339e3563760e11b81525f600482015260240161065e565b5f8281526006602052604090206111978282611c25565b506040518281527ff8e1a15aba9398e019f0b49df1a4fde98ee17ae345cb5f6b5e2c27f5033e8ce79060200160405180910390a15050565b6007546001600160a01b03163314610c9f5760405163118cdaa760e01b815233600482015260240161065e565b600780546001600160a01b038381166001600160a01b0319831681179093556040519116919082907f8be0079c531659141344cd1fd0a4f28419497f9722a3daafe3b4186f6b6457e0905f90a35050565b6001600160a01b03821661127f57604051630b61174360e31b81526001600160a01b038316600482015260240161065e565b6001600160a01b038381165f81815260056020908152604080832094871680845294825291829020805460ff191686151590811790915591519182527f17307eab39ab6107e8899845ad3d59bd9653f200f220920489ca2b5937696c31910160405180910390a3505050565b6001600160a01b0383163b1561140c57604051630a85bd0160e11b81526001600160a01b0384169063150b7a029061132d908890889087908790600401611ce0565b6020604051808303815f875af1925050508015611367575060408051601f3d908101601f1916820190925261136491810190611d1c565b60015b6113ce573d808015611394576040519150601f19603f3d011682016040523d82523d5f602084013e611399565b606091505b5080515f036113c657604051633250574960e11b81526001600160a01b038516600482015260240161065e565b805160208201fd5b6001600160e01b03198116630a85bd0160e11b1461140a57604051633250574960e11b81526001600160a01b038516600482015260240161065e565b505b5050505050565b606061141e82610f3b565b505f61143460408051602081019091525f815290565b90505f8151116114525760405180602001604052805f81525061147d565b8061145c846115ec565b60405160200161146d929190611bcd565b6040516020818303038152906040525b9392505050565b808061149857506001600160a01b03821615155b15611559575f6114a784610f3b565b90506001600160a01b038316158015906114d35750826001600160a01b0316816001600160a01b031614155b80156114e657506114e48184610e82565b155b1561150f5760405163a9fbf51f60e01b81526001600160a01b038416600482015260240161065e565b81156115575783856001600160a01b0316826001600160a01b03167f8c5be1e5ebec7d5bd14f71427d1e84f3dd0314c0f7b2291e5b200ac8c7c3b92560405160405180910390a45b505b50505f90815260046020526040902080546001600160a01b0319166001600160a01b0392909216919091179055565b61159383838361167c565b610aa1576001600160a01b0383166115c157604051637e27328960e01b81526004810182905260240161065e565b60405163177e802f60e01b81526001600160a01b03831660048201526024810182905260440161065e565b60605f6115f8836116dd565b60010190505f8167ffffffffffffffff811115611617576116176118d8565b6040519080825280601f01601f191660200182016040528015611641576020820181803683370190505b5090508181016020015b5f19016f181899199a1a9b1b9c1cb0b131b232b360811b600a86061a8153600a850494508461164b57509392505050565b5f6001600160a01b03831615801590610e7a5750826001600160a01b0316846001600160a01b031614806116b557506116b58484610e82565b80610e7a5750505f908152600460205260409020546001600160a01b03908116911614919050565b5f8072184f03e93ff9f4daa797ed6e38ed64bf6a1f0160401b831061171b5772184f03e93ff9f4daa797ed6e38ed64bf6a1f0160401b830492506040015b6d04ee2d6d415b85acef81000000008310611747576d04ee2d6d415b85acef8100000000830492506020015b662386f26fc10000831061176557662386f26fc10000830492506010015b6305f5e100831061177d576305f5e100830492506008015b612710831061179157612710830492506004015b606483106117a3576064830492506002015b600a83106105395760010192915050565b6001600160e01b031981168114610ee9575f5ffd5b5f602082840312156117d9575f5ffd5b813561147d816117b4565b5f81518084528060208401602086015e5f602082860101526020601f19601f83011685010191505092915050565b602081525f61147d60208301846117e4565b5f60208284031215611834575f5ffd5b5035919050565b80356001600160a01b0381168114611851575f5ffd5b919050565b5f5f60408385031215611867575f5ffd5b6118708361183b565b946020939093013593505050565b5f5f5f60608486031215611890575f5ffd5b6118998461183b565b92506118a76020850161183b565b929592945050506040919091013590565b5f5f604083850312156118c9575f5ffd5b50508035926020909101359150565b634e487b7160e01b5f52604160045260245ffd5b5f5f67ffffffffffffffff841115611906576119066118d8565b50604051601f19601f85018116603f0116810181811067ffffffffffffffff82111715611935576119356118d8565b60405283815290508082840185101561194c575f5ffd5b838360208301375f60208583010152509392505050565b5f5f5f60608486031215611975575f5ffd5b61197e8461183b565b9250602084013567ffffffffffffffff811115611999575f5ffd5b8401601f810186136119a9575f5ffd5b6119b8868235602084016118ec565b93969395505050506040919091013590565b5f602082840312156119da575f5ffd5b61147d8261183b565b8015158114610ee9575f5ffd5b5f5f60408385031215611a01575f5ffd5b611a0a8361183b565b91506020830135611a1a816119e3565b809150509250929050565b5f5f5f5f60808587031215611a38575f5ffd5b611a418561183b565b9350611a4f6020860161183b565b925060408501359150606085013567ffffffffffffffff811115611a71575f5ffd5b8501601f81018713611a81575f5ffd5b611a90878235602084016118ec565b91505092959194509250565b5f5f60408385031215611aad575f5ffd5b611ab68361183b565b9150611ac46020840161183b565b90509250929050565b600181811c90821680611ae157607f821691505b602082108103611aff57634e487b7160e01b5f52602260045260245ffd5b50919050565b634e487b7160e01b5f52601160045260245ffd5b808202811582820484141761053957610539611b05565b5f82611b4a57634e487b7160e01b5f52601260045260245ffd5b500490565b8181038181111561053957610539611b05565b5f60208284031215611b72575f5ffd5b815161147d816119e3565b5f60018201611b8e57611b8e611b05565b5060010190565b604081525f611ba760408301856117e4565b90508260208301529392505050565b5f81518060208401855e5f93019283525090919050565b5f610e7a611bdb8386611bb6565b84611bb6565b601f821115610aa157805f5260205f20601f840160051c81016020851015611c065750805b601f840160051c820191505b8181101561140c575f8155600101611c12565b815167ffffffffffffffff811115611c3f57611c3f6118d8565b611c5381611c4d8454611acd565b84611be1565b6020601f821160018114611c85575f8315611c6e5750848201515b5f19600385901b1c1916600184901b17845561140c565b5f84815260208120601f198516915b82811015611cb45787850151825560209485019460019092019101611c94565b5084821015611cd157868401515f19600387901b60f8161c191681555b50505050600190811b01905550565b6001600160a01b03858116825284166020820152604081018390526080606082018190525f90611d12908301846117e4565b9695505050505050565b5f60208284031215611d2c575f5ffd5b815161147d816117b456fea2646970667358221220b66601733f866ce7b91e88e84b40b819fdeb86b97cc86b4a56fa503849cd1fe364736f6c634300081c0033",
  "linkReferences": {},
  "deployedLinkReferences": {}
}